:0400000074EF17F092
:1010000000010000000A00000064000000E8030086
:101010000010270000A086010040420F0080969833
:101020000000E1F50500CA9A3B00803F0020410026
:10103000C842007A44401C4650C34724744997185C
:101040004BBCBE4C6B6E4E03155079AD60F34971CD
:1010500000803FCDCC3DD7233C12833AB7D138C670
:101060002737388635C0D633CC2B32708930E7DB52
:101070002EE53C1E42A20D252E3266005465737487
:101080000055693D00493D00553D00204100205676
:101090000000440E0001DE6F000EDF6F6BD3250EE3
:1010A000F119D8B407D040C0D9FF41C0DAFFF1C070
:1010B000DFFF5ED3000EE16F000EE06F42C0F6FF6F
:1010C00043C0F7FF0800F5502E0AD8A42FD0E18DB9
:1010D000424A432A000EED6F000EEC6F1CD0ECC0AC
:1010E0000FF0EDC010F0000E126E0A0E116EA5EC9E
:1010F00017F042C0F6FF43C0F7FF0800F5500F2677
:10110000000E1022D00E0F240001EC6FFF0E1020F5
:10111000ED6F424A432A42C0F6FF43C0F7FF080082
:10112000F550EDEC17F0D8A00AD0D9D7000E000189
:10113000ED6F000EEC6FE18902D0E18512D042C064
:10114000F6FF43C0F7FF424A432A0800F5CFF1F00B
:101150000001F151000AD8B419D3660AD8B4EDD70A
:1011600009D3070EE115D8B4C9D2E1A904D0000E05
:10117000ED6F060EEC6FDEC0D9FFDFC0DAFFDECF09
:10118000EEF0DECFEFF0DDCFF0F0030EDE27000E45
:10119000DF23F0AF11D0EEC001F0EFC002F0F0C0DD
:1011A00003F0B8EC17F001C0EEF002C0EFF003C09E
:1011B000F0F0030E0001E013000EE76F000EE66F83
:1011C000EE51EF11F011D8B486D0820E476EFF0EAB
:1011D000486EEEC049F0EFC04AF0F0C04BF0F1C0ED
:1011E0004CF0100E05D0D8904C324B324A32493276
:1011F000E82EF9D749504724E66F000E4820E76FE4
:10120000E607D8A0E707E6C00FF0E7C010F0000E31
:10121000126E030E116EA5EC17F00FC0E6F010C0B1
:10122000E7F0E6C007F0E7C008F0000E0A6E0A0E0D
:10123000096EB6EC14F007C0E6F008C0E7F0000154
:10124000E7AF03D0E607D8A0E707E6510008CDECEA
:101250000BF024C0E8F025C0E9F026C0EAF0E8C0B1
:1012600015F0E9C016F0EAC017F0EEC018F0EFC0B4
:1012700019F0F0C01AF0FDEC10F015C0E8F016C03F
:10128000E9F017C0EAF0E8C001F0E9C002F0EAC0F6
:1012900003F0000E046E800E056E3F0E066E6EECBF
:1012A00014F0D8B005D00001E607D8A0E70713D0A6
:1012B000E8C001F0E9C002F0EAC003F0000E046EDD
:1012C000200E056E410E066E6EEC14F0D8A003D011
:1012D0000001E64BE72B0001EDBF06D0ED511BE10D
:1012E0000D0EEC5DD8B017D0EEC02EF0EFC02FF091
:1012F000F0C030F0EC51D1EC0DF024C031F025C03D
:1013000032F026C033F0FAEC0EF02EC0EEF02FC013
:10131000EFF030C0F0F00001E7BF06D0E75120E168
:101320000A0EE65DD8B01CD0EE51EF11F011D8B422
:1013300056D0EEC02BF0EFC02CF0F0C02DF077ECC3
:1013400011F02B502C102D102E10D8A448D00001D5
:10135000E7BF45D0E75104E1020EE65DD8A03FD0DB
:10136000E8C001F0E9C002F0EAC003F0700E046EBC
:10137000890E056E400E066E6EEC14F0D8B003D0E8
:101380000001F70E02D00001F80EE627FF0EE7235A
:10139000E651CDEC0BF024C0E8F025C0E9F026C002
:1013A000EAF0EEC001F0EFC002F0F0C003F0E8C0D8
:1013B00004F0E9C005F0EAC006F0D0EC0FF001C07F
:1013C000E2F002C0E3F003C0E4F004C0E5F0000E78
:1013D0000001EE6F000EEF6F000EF06F33D0EEC025
:1013E0002BF0EFC02CF0F0C02DF077EC11F02BC0FB
:1013F000E2F02CC0E3F02DC0E4F02EC0E5F0EEC02A
:101400003AF0EFC03BF0F0C03CF0E2C009F0E3C0BE
:101410000AF0E4C00BF0E5C00CF053EC16F009C084
:101420003DF00AC03EF00BC03FF054EC17F03AC05C
:10143000EEF03BC0EFF03CC0F0F0000E0001E76FB3
:10144000000EE66F010EF16F0A0EF119D8B418D034
:10145000F151040D010EF324F66E100EF420F76E18
:101460000900F550E25D0900F550E3590900F55017
:10147000E4590900F550E559D8A002D0F12BE4D782
:10148000030EE015476E000EE115486E47504810F8
:10149000D8B450D040C0D9FF41C0DAFF2D0E47D09C
:1014A000E2C001F0E3C002F0E4C003F0E5C004F0E4
:1014B000F151040D010EF324F66E100EF420F76EB8
:1014C0000900F5CF05F00900F5CF06F00900F5CFCA
:1014D00007F00A00F5CF08F0F8EC14F001C0E8F0CE
:1014E00002C0E9F003C0EAF004C0EBF0E8C001F08C
:1014F000E9C002F0EAC003F0EBC004F00A0E056E8A
:10150000000E066E000E076E000E086E20EC16F040
:1015100001C0E8F002C0E9F003C0EAF004C0EBF05B
:101520000001E851300F40C0D9FF41C0DAFFDF6E43
:10153000404A412AF107F129D8B40CD0B1D740C0B4
:10154000D9FF41C0DAFF300EDF6E404A412AE6077C
:10155000D8A0E707E7BF05D0E751F1E1E605D8B02D
:10156000EED7EDBF09D0ED5104E1090EEC5DD8A036
:1015700003D0080EF16F02D0ECC0F1F0F151EC5F36
:10158000000EF1BFFF0EED5BF151D8B408D040C0A2
:10159000D9FF41C0DAFF2E0EDF6E404A412AF151D9
:1015A000CDEC0BF024C0DBF025C0DCF026C0DDF074
:1015B000EEC018F0EFC019F0F0C01AF0DBC015F063
:1015C000DCC016F0DDC017F0FDEC10F015C02BF0FC
:1015D00016C02CF017C02DF077EC11F02BC0E2F004
:1015E0002CC0E3F02DC0E4F02EC0E5F071D0E2C0D5
:1015F00001F0E3C002F0E4C003F0E5C004F0000134
:10160000F151040D010EF324F66E100EF420F76E66
:101610000900F5CF05F00900F5CF06F00900F5CF78
:1016200007F00A00F5CF08F0F8EC14F001C0E8F07C
:1016300002C0E9F003C0EAF004C0EBF0E8C001F03A
:10164000E9C002F0EAC003F0EBC004F00A0E056E38
:10165000000E066E000E076E000E086E20EC16F0EF
:1016600001C0E8F002C0E9F003C0EAF004C0EBF00A
:101670000001E851300F40C0D9FF41C0DAFFDF6EF2
:10168000404A412AE2C001F0E3C002F0E4C003F0A6
:10169000E5C004F0F151040D010EF324F66E100EB6
:1016A000F420F76E0900F5CF05F00900F5CF06F03C
:1016B0000900F5CF07F00A00F5CF08F020EC16F08E
:1016C00001C0E2F002C0E3F003C0E4F004C0E5F0C2
:1016D0000001F107F129D8B40CD089D740C0D9FF57
:1016E00041C0DAFF300EDF6E404A412AEC07D8A035
:1016F000ED07EC51ED11D8B43DD0F0D7EC51ED1120
:10170000D8A408D0E251E311E411E511D8A402D025
:10171000EC4BED2B800EF1BF7F0E476EEC51F15D6F
:10172000ED51800A4758D8B003D0ECC0F1F010D08A
:10173000ED51800A476EF151EC5D800EF1BF7F0ED6
:101740004758D8B005D0F151EC6FED6BECBFED0709
:10175000030EE015476E000EE115486E4750481025
:10176000D8B408D040C0D9FF41C0DAFF2D0EDF6EDB
:10177000404A412A42C0F6FF43C0F7FF424A432A8B
:101780000800F5CFF1F0F151D8A489D440C0D9FFB9
:1017900041C0DAFF000EDF6E12002A6E2AAE01D1C0
:1017A0002A6C2A50800A120FD8A091D0000E126E17
:1017B000030E116E000E0A6E0A0E096E000E046E04
:1017C000640E036E2A50016E026A01BE0206B2EC7C
:1017D00015F001C007F002C008F0B6EC14F0090ED5
:1017E00007240F6E000E0820106EA5EC17F0500EA7
:1017F0000F24F66E100E1020F76E0900F5CF18F0CA
:101800000900F5CF19F00A00F5CF1AF0000E0A6EA4
:10181000640E096E2A50076E086A07BE0806B6EC09
:1018200014F0120E07240F6E000E0820106E000E2A
:10183000126E030E116EA5EC17F0500E0F24F66E0B
:10184000100E1020F76E0900F5CF15F00900F5CF46
:1018500016F00A00F5CF17F0FDEC10F015C027F0D8
:1018600016C028F017C029F027C015F028C016F0C0
:1018700029C017F0000E126E030E116E000E046EDA
:101880000A0E036E2A50016E026A01BE0206B2EC15
:1018900015F001C00FF002C010F0A5EC17F0500ECB
:1018A0000F24F66E100E1020F76E0900F5CF18F019
:1018B0000900F5CF19F00A00F5CF1AF0FDEC10F091
:1018C00015C024F016C025F017C026F012002A50CB
:1018D000800A750FD8A053D0000E0A6E0A0E096E4A
:1018E0002A50076E086A07BE0806B6EC14F0090E07
:1018F00007240F6E000E0820106E000E126E030EED
:10190000116EA5EC17F0500E0F24F66E100E10207D
:10191000F76E0900F5CF15F00900F5CF16F00A00B3
:10192000F5CF17F0000E126E030E116E000E046E4E
:101930000A0E036E2A50016E026A01BE0206B2EC64
:1019400015F001C00FF002C010F0A5EC17F0500E1A
:101950000F24F66E100E1020F76E0900F5CF18F068
:101960000900F5CF19F00A00F5CF1AF0FDEC10F0E0
:1019700015C024F016C025F017C026F012002A501A
:10198000030D500EF324F66E100EF420F76E0900CE
:10199000F5CF24F00900F5CF25F00A00F5CF26F0A9
:1019A00012002A50800A120FD8A091D0000E126E99
:1019B000030E116E000E0A6E0A0E096E000E046E02
:1019C000640E036E2A50016E026A01BE0206B2EC7A
:1019D00015F001C007F002C008F0B6EC14F0090ED3
:1019E00007240F6E000E0820106EA5EC17F0290ECC
:1019F0000F24F66E100E1020F76E0900F5CF18F0C8
:101A00000900F5CF19F00A00F5CF1AF0000E0A6EA2
:101A1000640E096E2A50076E086A07BE0806B6EC07
:101A200014F0120E07240F6E000E0820106E000E28
:101A3000126E030E116EA5EC17F0290E0F24F66E30
:101A4000100E1020F76E0900F5CF15F00900F5CF44
:101A500016F00A00F5CF17F0FDEC10F015C027F0D6
:101A600016C028F017C029F027C015F028C016F0BE
:101A700029C017F0000E126E030E116E000E046ED8
:101A80000A0E036E2A50016E026A01BE0206B2EC13
:101A900015F001C00FF002C010F0A5EC17F0290EF0
:101AA0000F24F66E100E1020F76E0900F5CF18F017
:101AB0000900F5CF19F00A00F5CF1AF0FDEC10F08F
:101AC00015C024F016C025F017C026F012002A50C9
:101AD000800A750FD8A053D0000E0A6E0A0E096E48
:101AE0002A50076E086A07BE0806B6EC14F0090E05
:101AF00007240F6E000E0820106E000E126E030EEB
:101B0000116EA5EC17F0290E0F24F66E100E1020A2
:101B1000F76E0900F5CF15F00900F5CF16F00A00B1
:101B2000F5CF17F0000E126E030E116E000E046E4C
:101B30000A0E036E2A50016E026A01BE0206B2EC62
:101B400015F001C00FF002C010F0A5EC17F0290E3F
:101B50000F24F66E100E1020F76E0900F5CF18F066
:101B60000900F5CF19F00A00F5CF1AF0FDEC10F0DE
:101B700015C024F016C025F017C026F012002A5018
:101B8000030D290EF324F66E100EF420F76E0900F3
:101B9000F5CF24F00900F5CF25F00A00F5CF26F0A7
:101BA00012002D6E6D0E2D649FD0000E126E030E6E
:101BB000116E000E0A6E0A0E096E000E046E640E9F
:101BC000036E2DC001F0026AB2EC15F001C007F0FF
:101BD00002C008F0B6EC14F0090E07240F6E000ED8
:101BE0000820106EA5EC17F0500E0F24F66E100EA4
:101BF0001020F76E0900F5CF18F00900F5CF19F0A5
:101C00000A00F5CF1AF0000E0A6E640E096E2DC0A0
:101C100007F0086AB6EC14F0120E07240F6E000EDF
:101C20000820106E000E126E030E116EA5EC17F058
:101C3000500E0F24F66E100E1020F76E0900F5CF2F
:101C400015F00900F5CF16F00A00F5CF17F0FDECFE
:101C500010F015C02AF016C02BF017C02CF0000EA3
:101C6000126E030E116E000E046E0A0E036E2DC06E
:101C700001F0026AB2EC15F001C00FF002C010F0E2
:101C8000A5EC17F0500E0F24F66E100E1020F76E14
:101C90000900F5CF18F00900F5CF19F00A00F5CFCB
:101CA0001AF02AC015F02BC016F02CC017F0FDEC6E
:101CB00010F015C027F016C028F017C029F027C073
:101CC00015F028C016F029C017F0000E186E000E8F
:101CD000196E3F0E1A6EFDEC10F015C024F016C000
:101CE00025F017C026F012000A0E2D6463D0000EF6
:101CF000126E030E116E000E046E0A0E036E2DC0DE
:101D000001F0026AB2EC15F001C00FF002C010F051
:101D1000A5EC17F0500E0F24F66E100E1020F76E83
:101D20000900F5CF18F00900F5CF19F00A00F5CF3A
:101D30001AF0000E0A6E0A0E096E2DC007F0086A2E
:101D4000B6EC14F0090E07240F6E000E0820106E7A
:101D5000000E126E030E116EA5EC17F0500E0F243C
:101D6000F66E100E1020F76E0900F5CF15F0090081
:101D7000F5CF16F00A00F5CF17F0FDEC10F015C006
:101D80002AF016C02BF017C02CF02AC015F02BC07B
:101D900016F02CC017F0000E186E000E196E3F0ED4
:101DA0001A6EFDEC10F015C024F016C025F017C017
:101DB00026F012002D50030D500EF324F66E100E77
:101DC000F420F76E0900F5CF15F00900F5CF16F0F5
:101DD0000A00F5CF17F0000E186E000E196E3F0EB8
:101DE0001A6EFDEC10F015C024F016C025F017C0D7
:101DF00026F0120030C034F0356A366A2F3434369B
:101E000001E335803450396E33C034F0356A366AB8
:101E10003234343601E335803450386E3950D8B41A
:101E20000BD03850395CD8B00ED039500008382467
:101E3000346E180E346407D031C02EF032C02FF04B
:101E400033C030F012003850D8B40BD03950385C61
:101E5000D8B00ED0385000083924346E180E3464CF
:101E600007D02EC02EF02FC02FF030C030F012005F
:101E7000060E376E30BE378E33BE378C2F8EFF0E78
:101E80002E16FF0E2F16000E3016328EFF0E311654
:101E9000FF0E3216000E33163850395CD8B01BD006
:101EA000D890313632363336380639503818D8B4EF
:101EB0000DD0370637C034F0070E3416D8B406D02C
:101EC000EFD7D89030322F322E32392A3850391885
:101ED000D8B41FD0F6D73950385CD8B01AD0D890C3
:101EE0002E362F363036390639503818D8B40DD042
:101EF000370637C034F0070E3416D8B406D0EFD703
:101F0000D890333232323132382A38503918D8A486
:101F1000F7D737AE0CD0FF0E2E1AFF0E2F1AFF0E7A
:101F2000301A010E2E26000E2F22000E302237AC62
:101F30000CD0FF0E311AFF0E321AFF0E331A010EAB
:101F40003126000E3222000E3322000E376E2E5044
:101F500031262F5032223050332233AE0ED0FF0EB6
:101F6000311AFF0E321AFF0E331A010E3126000EFF
:101F70003222000E3322010E376E31C001F032C022
:101F800002F033C003F039C004F037C005F017EC9D
:101F900014F001C02EF002C02FF003C030F0120088
:101FA00003C007F0086A096A0234073601E30880B3
:101FB00007500F6E0F50D8A409D0000E016E000E0E
:101FC000026E000E036E000E046E120006C007F0D3
:101FD000086A096A0534073601E3088007500E6E67
:101FE0000E50D8A409D0000E016E000E026E000E35
:101FF000036E000E046E1200028EFF0E0116FF0E1D
:102000000216000E0316058EFF0E0416FF0E0516AF
:10201000000E0616000E0A6E000E0B6E000E0C6E01
:10202000000E0D6E7F0E0F5E0E50980F0F5E180E95
:102030000E6ED8900A360B360C360D360450015C05
:102040000550025806500358D8A007D00450015E2E
:102050000550025A0650035A0A80D89001360236BB
:1020600003360E2EE6D70FAE16D00F50800A970F0C
:10207000D8B009D0000E016E000E026E000E036E85
:10208000000E046E1200D8900D320C320B320A3260
:102090000F3EF9D715D0170E0F640FD0000E016E4A
:1020A000000E026E000E036E000E046E1200D89039
:1020B0000A360B360C360D360F060F50D8A4F7D75C
:1020C0000AC001F00BC002F00CC003F00DC004F018
:1020D0001200033404340C6E0C50D8A409D0000E46
:1020E000016E000E026E000E036E000E046E1200F2
:1020F000063407340B6E0B50D8A409D0000E016EC5
:10210000000E026E000E036E000E046E1200038EAF
:10211000FF0E0116FF0E0216FF0E0316000E041628
:10212000068EFF0E0416FF0E0516FF0E0616000E95
:102130000716000E076E000E086E000E096E000EE8
:102140000A6E7F0E0C5E0B50A00F0C5E200E0B6E05
:10215000D8900736083609360A360450015C055017
:1021600002580650035807500458D8A009D004500C
:10217000015E0550025A0650035A0750045A078060
:10218000D89001360236033604360B2EE1D70CAE5A
:1021900016D00C50800A9F0FD8B009D0000E016EE7
:1021A000000E026E000E036E000E046E1200D89038
:1021B0000A320932083207320C3EF9D715D01F0E09
:1021C0000C640FD0000E016E000E026E000E036E46
:1021D000000E046E1200D8900736083609360A360B
:1021E0000C060C50D8A4F7D707C001F008C002F0C5
:1021F00009C003F00AC004F0120017C01BF01C6AEB
:102200001D6A16341B3601E31C801B501E6E1E50C7
:10221000D8A407D0000E156E000E166E000E176EB5
:1022200012001AC01BF01C6A1D6A19341B3601E328
:102230001C801B50236E2350D8A407D0000E156EAF
:10224000000E166E000E176E120023507B0F1E2616
:1022500017C023F01A50231A800E2316168E198EDB
:10226000FF0E1816FF0E1916000E1A16000E1F6E1E
:10227000000E206E000E216E070E226E15A006D0F5
:1022800018501F26195020221A502122D890173298
:1022900016321532D890183619361A36222EEED745
:1022A000090E226E15A006D018501F2619502022A4
:1022B0001A502122D890173216321532D890213276
:1022C00020321F32222EEED71FC001F020C002F0B4
:1022D00021C003F01EC004F023C005F017EC14F079
:1022E00001C015F002C016F003C017F012002DC097
:1022F0002FF0306A316A2C342F3601E330802F50B2
:10230000396E3950D8A409D0000E2B6E000E2C6EF9
:10231000000E2D6E000E2E6E1200170E2F6E2BC0AB
:1023200030F02CC031F02DC032F02F28336E04D0A5
:10233000D890323231323032332EFAD73050346EB8
:102340002C8EFF0E2B16FF0E2C16000E2D162B506A
:10235000356E2C50366E2D50376E386A8E0E395EC3
:1023600039AE16D03950800A8F0FD8B009D0000E80
:102370002B6E000E2C6E000E2D6E000E2E6E1200B7
:10238000D8903832373236323532393EF9D715D017
:10239000170E39640FD0000E2B6E000E2C6E000E3F
:1023A0002D6E000E2E6E1200D8903536363637362A
:1023B000383639063950D8A4F7D73450D8B408D0B5
:1023C000381E371E361E356C000E36223722382254
:1023D00035C02BF036C02CF037C02DF038C02EF0B1
:1023E00012000F0EC26ED00E4D6ECA0EE82EFED732
:1023F0004D2EFCD7C282090E4E6E1E0E4D6EE40E9F
:10240000E82EFED74D2EFCD74E2EFAD700D0C45062
:10241000CAEC17F009C056F00AC057F00BC058F0CC
:1024200056C015F057C016F058C017F0000E186EC1
:10243000A00E196E3C0E1A6EFDEC10F015C053F094
:1024400016C054F017C055F053C009F054C00AF03C
:1024500055C00BF0CD0E0C6E4C0E0D6E3E0E0E6E7A
:1024600065EC12F009C0A8F00AC0A9F00BC0AAF0F0
:10247000090E0B6E010E04EC17F0810E086E100EA3
:10248000096E77EC15F0D30E406E000E416E770E9C
:10249000426E100E436EA8C044F0A9C045F0AAC019
:1024A00046F049EC08F00C0E0B6E010E04EC17F030
:1024B000D30E086E000E096E77EC15F08E0E086EC6
:1024C000100E096E77EC15F012000BC00FF0106AB9
:1024D000116A0A340F3601E310800F50166E165041
:1024E000D8A407D0000E096E000E0A6E000E0B6E07
:1024F00012000EC00FF0106A116A0D340F3601E39E
:1025000010800F50176E1750D8A407D0000E096E18
:10251000000E0A6E000E0B6E1200000E136E000EFF
:10252000146E000E156E1750890F165E0BC017F053
:102530000E50171A800E17160A8EFF0E0916FF0E80
:102540000A16000E0B160D8EFF0E0C16FF0E0D1642
:10255000000E0E16180E126ED8901336143615365D
:102560000C50095C0D500A580E500B58D8A007D0DB
:102570000C50095E0D500A5A0E500B5A1380D89019
:1025800009360A360B36122EE7D713C001F014C0F5
:1025900002F015C003F016C004F017C005F017ECE8
:1025A00014F001C009F002C00AF003C00BF01200E1
:1025B000070EC26ED00E4D6ECA0EE82EFED74D2EFF
:1025C000FCD7C282090E4E6E1E0E4D6EE40EE82E32
:1025D000FED74D2EFCD74E2EFAD700D0C450CAECF1
:1025E00017F009C056F00AC057F00BC058F056C09B
:1025F00015F057C016F058C017F0000E186EA00E58
:10260000196E3C0E1A6EFDEC10F015C053F016C09A
:1026100054F017C055F053C009F054C00AF055C02B
:102620000BF0000E0C6E800E0D6E3E0E0E6E65EC05
:1026300012F009C0ABF00AC0ACF00BC0ADF0010E57
:102640000B6E010E04EC17F0880E086E100E096E6A
:1026500077EC15F0D30E406E000E416E770E426E91
:10266000100E436EABC044F0ACC045F0ADC046F0B8
:1026700049EC08F0030E0B6E010E04EC17F0D30EBC
:10268000086E000E096E77EC15F01200DAEC16F009
:1026900091EC17F0FCEC17F0EAEC15F012EC18F0E6
:1026A000D8EC12F0000E526E010E516E090E506EF3
:1026B0001E0E4F6EE40EE82EFED74F2EFCD7502E86
:1026C000FAD700D0000EC46E090E506E1E0E4F6E6B
:1026D000E40EE82EFED74F2EFCD7502EFAD700D0AE
:1026E000B1EC13F0000E526E020E516E090E506ED8
:1026F0001E0E4F6EE40EE82EFED74F2EFCD7502E46
:10270000FAD700D0000EC46E090E506E1E0E4F6E2A
:10271000E40EE82EFED74F2EFCD7502EFAD700D06D
:10272000F1EC11F0000E526E000E516E090E506E5B
:102730001E0E4F6EE40EE82EFED74F2EFCD7502E05
:10274000FAD700D0000EC46E090E506E1E0E4F6EEA
:10275000E40EE82EFED74F2EFCD7502EFAD700D02D
:102760009FD70B0EC26ED00E4D6ECA0EE82EFED74E
:102770004D2EFCD7C282090E4E6E1E0E4D6EE40E1B
:10278000E82EFED74D2EFCD74E2EFAD700D0C450DF
:10279000CAEC17F009C0B4F00AC0B5F00BC0B6F02F
:1027A000B4C015F0B5C016F0B6C017F0950E186E8F
:1027B000940E196E3C0E1A6EFDEC10F015C0B1F0BF
:1027C00016C0B2F017C0B3F0B1C0AEF0B2C0AFF0F7
:1027D000B3C0B0F0010E0B6E020E04EC17F0850EC4
:1027E000086E100E096E77EC15F0CB0E406E000EE1
:1027F000416E770E426E100E436EAEC044F0AFC015
:1028000045F0B0C046F049EC08F0030E0B6E020E26
:1028100004EC17F0CB0E086E000E096E77EC15F085
:102820008B0E086E100E096E77EC15F01200045036
:10283000D8B405D0015002100310D8A40CD0000E5B
:10284000016E000E026E000E036E1200042AD89074
:10285000033202320132000E0114066E000E021421
:10286000076EFE0E0314086E065007100810D8B449
:102870000CD0ECD7042A010E0126000E0222000E15
:102880000322D890033202320132000E0114066E88
:10289000000E0214076EFF0E0314086E0650071098
:1028A0000810D8B406D0E6D70406D8900136023610
:1028B000033602BE03D0020E0460F6D704A0029EC7
:1028C000D8900432045003120550D8A4038E01C0DE
:1028D00001F002C002F003C003F0120003AE16D0F4
:1028E00001C007F002C008F003C009F0071E081E6F
:1028F000091E072A000E08220922000E0724016E75
:10290000000E0820026E800E0920036E06AE16D05F
:1029100004C007F005C008F006C009F0071E081E35
:10292000091E072A000E08220922000E0724046E41
:10293000000E0820056E800E0920066E000E011A9A
:10294000000E021A800E031A000E041A000E051A59
:10295000800E061A0450015C0550025806500358B8
:10296000D8B002D0D8901200D8801200000E0C6EA1
:102970000AAE06D0096C0A1ED8B00A2A010E0C6EE7
:1029800008AE06D0076C081ED8B0082A010E0C1A33
:10299000000E0E6E000E0D6E09500A10D8B41CD039
:1029A000010E0B6E04D0D89009360A360B2A0AAEF7
:1029B000FAD7D8900D360E360950075C0A500858E1
:1029C000D8A005D00950075E0A50085A0D80D8904B
:1029D0000A3209320B2EEDD70C50D8B404D00D6C4E
:1029E0000E1ED8B00E2A0DC007F00EC008F012005F
:1029F000000E096E000E0A6E000E0B6E000E0C6EBD
:102A00000550061007100810D8B42AD0010E0D6E1C
:102A100006D0D89005360636073608360D2A08AE99
:102A2000F8D7D89009360A360B360C360550015CBB
:102A3000065002580750035808500458D8A009D02F
:102A40000550015E0650025A0750035A0850045AB6
:102A50000980D89008320732063205320D2EE1D7B0
:102A600009C001F00AC002F00BC003F00CC004F072
:102A70001200000EDCEC17F0020E0C6EA00E0B6EB6
:102A8000920EE82EFED70B2EFCD70C2EFAD700D0D4
:102A9000030E2CEC17F0680E0B6EE40EE82EFED73A
:102AA0000B2EFCD700D0030E2CEC17F0E50E0B6EAE
:102AB000910EE82EFED70B2EFCD700F0030E2CEC67
:102AC00017F0020E2CEC17F0020E2CEC17F0080E8B
:102AD0002CEC17F0000E2CEC17F00C0E2CEC17F071
:102AE000000E2CEC17F0060E2CEC17F01200000E66
:102AF0000D6E000E0C6E1BD00C5008240A6E0D508B
:102B000009200B6E0AC0F6FF0BC0F7FF000EF86E2F
:102B10000F0EF76403D00800F55005D0F6CFE9FF9B
:102B2000F7CFEAFFEF50AEEC16F00C4A0D2A0C502E
:102B300008240A6E0D5009200B6E0AC0F6FF0BC068
:102B4000F7FF000EF86E0F0EF76403D00800F55083
:102B500005D0F6CFE9FFF7CFEAFFEF500009D8B470
:102B60001200CAD7000E066E02AE06D0016C021E1D
:102B7000D8B0022A010E066E04AE04D0036C041E07
:102B8000D8B0042A03500410D8B418D0010E056E32
:102B900004D0D89003360436052A04AEFAD7035081
:102BA000015C04500258D8A004D00350015E0450C8
:102BB000025AD89004320332052EF1D70650D8B409
:102BC00004D0016C021ED8B0022A01C001F002C07C
:102BD00002F0120094869488A00E0E6E860E0F6E80
:102BE000010E106E000E116E81EC16F0090E176EBC
:102BF0001E0E166EE40EE82EFED7162EFCD7172EEC
:102C0000FAD700D039EC15F012EC18F019EC18F0E6
:102C1000010E0B6E010E04EC17F07C0E086E100E08
:102C2000096E77EC15F0090E176E1E0E166EE40E87
:102C3000E82EFED7162EFCD7172EFAD700D012009A
:102C40000550061007100810D8B424D0010E096EE4
:102C500006D0D8900536063607360836092A08AE5B
:102C6000F8D70550015C0650025807500358085029
:102C70000458D8A008D00550015E0650025A0750EB
:102C8000035A0850045AD8900832073206320532E7
:102C9000092EE7D701C001F002C002F003C003F023
:102CA00004C004F012008E0E116E06D0D8900C32C3
:102CB0000B320A320932112A000E09140D6E000E71
:102CC0000A140E6E000E0B140F6EFF0E0C14106E15
:102CD0000D500E100F101010D8A4E8D709C001F045
:102CE0000AC002F00BC003F011C004F0000E056E24
:102CF00017EC14F001C009F002C00AF003C00BF099
:102D00001200280EC66E000EC56E000E016E900EEB
:102D1000026ED00E036E030E046E0EC012F00FC0D2
:102D200013F010C014F011C015F0020ED890123636
:102D3000133614361536E82EF9D712C005F013C035
:102D400006F014C007F015C008F0F8EC14F0010408
:102D5000C86E000EC76E948694881200056E0550EA
:102D60000F0B076E0738F00B076E0550F00B066E61
:102D7000010EDCEC17F00650DCEC17F006500509EC
:102D8000DCEC17F0D50EE82EFED700F00650010956
:102D9000DCEC17F00750DCEC17F007500509DCEC11
:102DA00017F0D50EE82EFED700F007500109DCEC35
:102DB00017F012009268000E936E000E946E000ED3
:102DC000956E9668000E806E000E816E000E826E0B
:102DD000000E836E000E846E000E896E000E8A6EE9
:102DE000000E8B6E000E8C6E000E8D6E0F0138691A
:102DF000000E396F000E3A6F000E3B6F000E3C6FF5
:102E0000740ED36E9B8C12000C6E0C04D8A410D0E0
:102E10000B507F0F0F6E0F380F0B0D6E0F500F0BF7
:102E20000E6E0D502CEC17F00E502CEC17F012001B
:102E3000020E0C18D8A412000B50BF0F0F6E0F38E3
:102E40000F0B0D6E0F500F0B0E6E0D502CEC17F07C
:102E50000E502CEC17F012000A6E0A38F00B0A6EB6
:102E6000010E076E000E076E0750DCEC17F00A50DB
:102E7000DCEC17F0040E0AC005F0066A0510086EB7
:102E80000650096E0850DCEC17F0540E056E1C0E4F
:102E9000E82EFED7052EFCD700D00AC008F0096A3C
:102EA0000850DCEC17F012003D503E103F10D8B433
:102EB00006D0000E3D1A000E3E1A800E3F1A3AC090
:102EC0002EF03BC02FF03CC030F03DC031F03EC092
:102ED00032F03FC033F0FAEC0EF02EC03AF02FC0C3
:102EE0003BF030C03CF012005A0EF66E300EF76E1A
:102EF000000EF86E0900F5CF5DF00900F5CF5EF029
:102F000000EE60F07B0EEE6AE806FDE100EE53F0A5
:102F10000A0EEE6AE806FDE1000EF86E000146EFCB
:102F200013F0000E0F01496F0C0E666E0C0EBD6E95
:102F30007D0EBA6EA00EBB6E800E676E400EBE6E2A
:102F40000C0E5D6F800E5E6F12000F501102F3CFFA
:102F500013F0F4CF14F00F501202F3501426105057
:102F60001102F350142613C00FF014C010F0120019
:102F7000015002100310D8B406D0000E011A000E42
:102F8000021A800E031A01C001F002C002F003C051
:102F900003F012000C6E0C50016E026A036A8E0E72
:102FA000046E000E056E17EC14F001C009F002C0AB
:102FB0000AF003C00BF01200046E29EC18F0000EAA
:102FC000036E700E026E20EC18F004C002F0036A6B
:102FD00020EC18F025EC18F01200036E000E026EC3
:102FE0003A0E036005D02F0E036402D0010E026E6C
:102FF00002C001F00130120092800F0138819282EC
:103000003883030EC26E800EC16E3E0EC06EC09E2F
:103010001200C7B4FED7C5CF01F01F0E0116D8B4F9
:103020001200F7D7000E2CEC17F0010E2CEC17F065
:103030001200000E2CEC17F00C0E2CEC17F0120006
:1030400009EC18F002C0C9FF120009EC18F0C584A1
:0C305000120009EC18F0C580120001000D
:020000040020DA
:08000000FFFFFFFFFFFFFFFF00
:020000040030CA
:0E000000FF18193CFFBF80FF0FC00FE00F403C
:00000001FF
