:040000003DEF18F0C8
:1010000000010000000A00000064000000E8030086
:101010000010270000A086010040420F0080969833
:101020000000E1F50500CA9A3B00803F0020410026
:10103000C842007A44401C4650C34724744997185C
:101040004BBCBE4C6B6E4E03155079AD60F34971CD
:1010500000803FCDCC3DD7233C12833AB7D138C670
:101060002737388635C0D633CC2B32708930E7DB52
:101070002EE53C1E42A20D5465737400252E326687
:101080000055693D00493D00553D00204100205676
:101090000000440E0001636F000E646F6BD3250ED9
:1010A0007619D8B407D040C0D9FF41C0DAFF76C066
:1010B000DFFF5ED3000E666F000E656F42C0F6FF65
:1010C00043C0F7FF0800F5502E0AD8A42FD0668D34
:1010D000424A432A000E726F000E716F1CD071C01D
:1010E0000FF072C010F0000E126E0A0E116EB0EC0E
:1010F00018F042C0F6FF43C0F7FF0800F5500F2676
:10110000000E1022D00E0F240001716FFF0E102070
:10111000726F424A432A42C0F6FF43C0F7FF0800FD
:10112000F550E6EC18F0D8A00AD0D9D7000E00018F
:10113000726F000E716F668902D0668512D042C050
:10114000F6FF43C0F7FF424A432A0800F5CF76F086
:1011500000017651000AD8B419D3660AD8B4EDD785
:1011600009D3070E6615D8B4C9D266A904D0000EFB
:10117000726F060E716F63C0D9FF64C0DAFFDECFF5
:1011800073F0DECF74F0DDCF75F0030E6327000E31
:10119000642375AF11D073C001F074C002F075C044
:1011A00003F0C3EC18F001C073F002C074F003C088
:1011B00075F0030E00016513000E6C6F000E6B6F6F
:1011C000735174117511D8B486D0820E476EFF0E1C
:1011D000486E73C049F074C04AF075C04BF076C0D9
:1011E0004CF0100E05D0D8904C324B324A32493276
:1011F000E82EF9D7495047246B6F000E48206C6FDA
:101200006B07D8A06C076BC00FF06CC010F0000E1D
:10121000126E030E116EB0EC18F00FC06BF010C020
:101220006CF06BC007F06CC008F0000E0A6E0A0E7E
:10123000096E61EC15F007C06BF008C06CF000019E
:101240006CAF03D06B07D8A06C076B510008CDECD6
:101250000BF024C06DF025C06EF026C06FF06DC09D
:1012600015F06EC016F06FC017F073C018F074C0A0
:1012700019F075C01AF021EC13F015C06DF016C00E
:101280006EF017C06FF06DC001F06EC002F06FC05D
:1012900003F0000E046E800E056E3F0E066E19EC14
:1012A00015F0D8B005D000016B07D8A06C0713D09B
:1012B0006DC001F06EC002F06FC003F0000E046E4E
:1012C000200E056E410E066E19EC15F0D8A003D065
:1012D00000016B4B6C2B000172BF06D072511BE1F9
:1012E0000D0E715DD8B017D073C02EF074C02FF002
:1012F00075C030F071517BEC0FF024C031F025C087
:1013000032F026C033F0A4EC10F02EC073F02FC0E2
:1013100074F030C075F000016CBF06D06C5120E154
:101320000A0E6B5DD8B01CD0735174117511D8B40E
:1013300056D073C02BF074C02CF075C02DF0A7EC04
:1013400012F02B502C102D102E10D8A448D00001D4
:101350006CBF45D06C5104E1020E6B5DD8A03FD04C
:101360006DC001F06EC002F06FC003F0700E046E2D
:10137000890E056E400E066E19EC15F0D8B003D03C
:101380000001F70E02D00001F80E6B27FF0E6C2350
:101390006B51CDEC0BF024C06DF025C06EF026C073
:1013A0006FF073C001F074C002F075C003F06DC03F
:1013B00004F06EC005F06FC006F07AEC11F001C0C9
:1013C00067F002C068F003C069F004C06AF0000E64
:1013D0000001736F000E746F000E756F33D073C011
:1013E0002BF074C02CF075C02DF0A7EC12F02BC0C0
:1013F00067F02CC068F02DC069F02EC06AF073C091
:101400003AF074C03BF075C03CF067C009F068C0AA
:101410000AF069C00BF06AC00CF03CEC17F009C090
:101420003DF00AC03EF00BC03FF060EC18F03AC04F
:1014300073F03BC074F03CC075F0000E00016C6F9F
:10144000000E6B6F010E766F0A0E7619D8B418D0A5
:101450007651040D010EF324F66E100EF420F76E93
:101460000900F550675D0900F55068590900F5500D
:1014700069590900F5506A59D8A002D0762BE4D7F3
:10148000030E6515476E000E6615486E47504810EE
:10149000D8B450D040C0D9FF41C0DAFF2D0E47D09C
:1014A00067C001F068C002F069C003F06AC004F0D0
:1014B0007651040D010EF324F66E100EF420F76E33
:1014C0000900F5CF05F00900F5CF06F00900F5CFCA
:1014D00007F00A00F5CF08F0A3EC15F001C06DF09D
:1014E00002C06EF003C06FF004C070F06DC001F078
:1014F0006EC002F06FC003F070C004F00A0E056EFB
:10150000000E066E000E076E000E086E09EC17F056
:1015100001C06DF002C06EF003C06FF004C070F047
:1015200000016D51300F40C0D9FF41C0DAFFDF6EBE
:10153000404A412A76077629D8B40CD0B1D740C0AA
:10154000D9FF41C0DAFF300EDF6E404A412A6B07F7
:10155000D8A06C076CBF05D06C51F1E16B05D8B019
:10156000EED772BF09D0725104E1090E715DD8A0A7
:1015700003D0080E766F02D071C076F07651715F9D
:10158000000E76BFFF0E725B7651D8B408D040C013
:10159000D9FF41C0DAFF2E0EDF6E404A412A765154
:1015A000CDEC0BF024C060F025C061F026C062F0E5
:1015B00073C018F074C019F075C01AF060C015F04F
:1015C00061C016F062C017F021EC13F015C02BF0CB
:1015D00016C02CF017C02DF0A7EC12F02BC067F04E
:1015E0002CC068F02DC069F02EC06AF071D067C0C1
:1015F00001F068C002F069C003F06AC004F00001A5
:101600007651040D010EF324F66E100EF420F76EE1
:101610000900F5CF05F00900F5CF06F00900F5CF78
:1016200007F00A00F5CF08F0A3EC15F001C06DF04B
:1016300002C06EF003C06FF004C070F06DC001F026
:101640006EC002F06FC003F070C004F00A0E056EA9
:10165000000E066E000E076E000E086E09EC17F005
:1016600001C06DF002C06EF003C06FF004C070F0F6
:1016700000016D51300F40C0D9FF41C0DAFFDF6E6D
:10168000404A412A67C001F068C002F069C003F017
:101690006AC004F07651040D010EF324F66E100EAC
:1016A000F420F76E0900F5CF05F00900F5CF06F03C
:1016B0000900F5CF07F00A00F5CF08F009EC17F0A4
:1016C00001C067F002C068F003C069F004C06AF0AE
:1016D000000176077629D8B40CD089D740C0D9FF4D
:1016E00041C0DAFF300EDF6E404A412A7107D8A0B0
:1016F000720771517211D8B43DD0F0D77151721187
:10170000D8A408D06751681169116A11D8A402D011
:10171000714B722B800E76BF7F0E476E7151765DD6
:101720007251800A4758D8B003D071C076F010D0FB
:101730007251800A476E7651715D800E76BF7F0EC2
:101740004758D8B005D07651716F726B71BF720770
:10175000030E6515476E000E6615486E475048101B
:10176000D8B408D040C0D9FF41C0DAFF2D0EDF6EDB
:10177000404A412A42C0F6FF43C0F7FF424A432A8B
:101780000800F5CF76F07651D8A489D440C0D9FFAF
:1017900041C0DAFF000EDF6E12002A6E2AAE01D1C0
:1017A0002A6C2A50800A120FD8A091D0000E126E17
:1017B000030E116E000E0A6E0A0E096E000E046E04
:1017C000640E036E2A50016E026A01BE02069BEC93
:1017D00016F001C007F002C008F061EC15F0090E28
:1017E00007240F6E000E0820106EB0EC18F0500E9B
:1017F0000F24F66E100E1020F76E0900F5CF18F0CA
:101800000900F5CF19F00A00F5CF1AF0000E0A6EA4
:10181000640E096E2A50076E086A07BE080661EC5E
:1018200015F0120E07240F6E000E0820106E000E29
:10183000126E030E116EB0EC18F0500E0F24F66EFF
:10184000100E1020F76E0900F5CF15F00900F5CF46
:1018500016F00A00F5CF17F021EC13F015C027F0B1
:1018600016C028F017C029F027C015F028C016F0C0
:1018700029C017F0000E126E030E116E000E046EDA
:101880000A0E036E2A50016E026A01BE02069BEC2C
:1018900016F001C00FF002C010F0B0EC18F0500EBE
:1018A0000F24F66E100E1020F76E0900F5CF18F019
:1018B0000900F5CF19F00A00F5CF1AF021EC13F06A
:1018C00015C024F016C025F017C026F012002A50CB
:1018D000800A750FD8A053D0000E0A6E0A0E096E4A
:1018E0002A50076E086A07BE080661EC15F0090E5B
:1018F00007240F6E000E0820106E000E126E030EED
:10190000116EB0EC18F0500E0F24F66E100E102071
:10191000F76E0900F5CF15F00900F5CF16F00A00B3
:10192000F5CF17F0000E126E030E116E000E046E4E
:101930000A0E036E2A50016E026A01BE02069BEC7B
:1019400016F001C00FF002C010F0B0EC18F0500E0D
:101950000F24F66E100E1020F76E0900F5CF18F068
:101960000900F5CF19F00A00F5CF1AF021EC13F0B9
:1019700015C024F016C025F017C026F012002A501A
:10198000030D500EF324F66E100EF420F76E0900CE
:10199000F5CF24F00900F5CF25F00A00F5CF26F0A9
:1019A00012002A50800A120FD8A091D0000E126E99
:1019B000030E116E000E0A6E0A0E096E000E046E02
:1019C000640E036E2A50016E026A01BE02069BEC91
:1019D00016F001C007F002C008F061EC15F0090E26
:1019E00007240F6E000E0820106EB0EC18F0290EC0
:1019F0000F24F66E100E1020F76E0900F5CF18F0C8
:101A00000900F5CF19F00A00F5CF1AF0000E0A6EA2
:101A1000640E096E2A50076E086A07BE080661EC5C
:101A200015F0120E07240F6E000E0820106E000E27
:101A3000126E030E116EB0EC18F0290E0F24F66E24
:101A4000100E1020F76E0900F5CF15F00900F5CF44
:101A500016F00A00F5CF17F021EC13F015C027F0AF
:101A600016C028F017C029F027C015F028C016F0BE
:101A700029C017F0000E126E030E116E000E046ED8
:101A80000A0E036E2A50016E026A01BE02069BEC2A
:101A900016F001C00FF002C010F0B0EC18F0290EE3
:101AA0000F24F66E100E1020F76E0900F5CF18F017
:101AB0000900F5CF19F00A00F5CF1AF021EC13F068
:101AC00015C024F016C025F017C026F012002A50C9
:101AD000800A750FD8A053D0000E0A6E0A0E096E48
:101AE0002A50076E086A07BE080661EC15F0090E59
:101AF00007240F6E000E0820106E000E126E030EEB
:101B0000116EB0EC18F0290E0F24F66E100E102096
:101B1000F76E0900F5CF15F00900F5CF16F00A00B1
:101B2000F5CF17F0000E126E030E116E000E046E4C
:101B30000A0E036E2A50016E026A01BE02069BEC79
:101B400016F001C00FF002C010F0B0EC18F0290E32
:101B50000F24F66E100E1020F76E0900F5CF18F066
:101B60000900F5CF19F00A00F5CF1AF021EC13F0B7
:101B700015C024F016C025F017C026F012002A5018
:101B8000030D290EF324F66E100EF420F76E0900F3
:101B9000F5CF24F00900F5CF25F00A00F5CF26F0A7
:101BA0001200C3EC17F09CEC18F0F5EC18F0D3EC35
:101BB00016F0000E0001A06F640E9F6F000E7B6F89
:101BC000000E7A6F000EA56F000EA46F95988C9C86
:101BD0008C9E8C9A8C98130EC26E0BEC19F00EEC46
:101BE00014F0010E0B6E010EEDEC17F0880E086E6E
:101BF000100E096E60EC16F0840E406E000E416E01
:101C00007C0E426E100E436EA1C044F0A2C045F09F
:101C1000A3C046F049EC08F0030E0B6E010EEDEC8C
:101C200017F0840E086E000E096E60EC16F0000EC0
:101C30000001A56F010EA46F090E4E6E1E0E4D6EB3
:101C4000E40EE82EFED74D2EFCD74E2EFAD700D04C
:101C5000000EC46E090E4E6E1E0E4D6EE40EE82E82
:101C6000FED74D2EFCD74E2EFAD700D0E4EC15F05F
:101C7000010E0B6E020EEDEC17F0850E086E100EC5
:101C8000096E60EC16F07C0E406E000E416E7C0E0C
:101C9000426E100E436E8CC044F08DC045F08EC075
:101CA00046F049EC08F0030E0B6E020EEDEC17F057
:101CB0007C0E086E000E096E60EC16F08B0E086E3E
:101CC000100E096E60EC16F0000E0001A56F020EFA
:101CD000A46F090E4E6E1E0E4D6EE40EE82EFED75A
:101CE0004D2EFCD74E2EFAD700D0000EC46E090E32
:101CF0004E6E1E0E4D6EE40EE82EFED74D2EFCD716
:101D00004E2EFAD700D068EC14F0090E0B6E010EBF
:101D1000EDEC17F0810E086E100E096E60EC16F0F7
:101D2000840E406E000E416E7C0E426E100E436EAD
:101D3000A1C044F0A2C045F0A3C046F049EC08F0B1
:101D40000C0E0B6E010EEDEC17F0840E086E000EFB
:101D5000096E60EC16F08E0E086E100E096E60ECC7
:101D600016F0000E0001A56F000EA46F090E4E6E56
:101D70001E0E4D6EE40EE82EFED74D2EFCD74E2ED5
:101D8000FAD700D0000EC46E090E4E6E1E0E4D6EB8
:101D9000E40EE82EFED74D2EFCD74E2EFAD700D0FB
:101DA0008FC001F090C002F091C003F0000E046EED
:101DB000400E056E410E066E19EC15F0D8B00FD727
:101DC000000EBE6E98C015F099C016F09AC017F0BC
:101DD00095C018F096C019F097C01AF021EC13F0D6
:101DE00015C077F016C078F017C079F09FC067FF74
:101DF0000B0EC26ED00E4D6ECA0EE82EFED74D2EC3
:101E0000FCD7C282090E4E6E1E0E4D6EE40EE82EF9
:101E1000FED74D2EFCD74E2EFAD700D0C4CF9BF064
:101E200000019C6B9BC009F09CC00AF080EC18F08C
:101E300009C015F00AC016F00BC017F0950E186E09
:101E4000940E196E3C0E1A6E21EC13F015C092F030
:101E500016C093F017C094F092C095F093C096F01E
:101E600094C097F0070EC26ED00E4D6ECA0EE82ECB
:101E7000FED74D2EFCD7C282090E4E6E1E0E4D6E41
:101E8000E40EE82EFED74D2EFCD74E2EFAD700D00A
:101E9000C4CF9DF000019E6B9DC009F09EC00AF06A
:101EA00080EC18F009C015F00AC016F00BC017F04E
:101EB000000E186EA00E196E3C0E1A6E21EC13F077
:101EC00015C0A1F016C0A2F017C0A3F0A1C00DF07C
:101ED000A2C00EF0A3C00FF0000E106E800E116EA7
:101EE0003E0E126E9BEC13F00DC098F00EC099F0F0
:101EF0000FC09AF074D62D6E6D0E2D649FD0000E1B
:101F0000126E030E116E000E0A6E0A0E096E000E9E
:101F1000046E640E036E2DC001F0026A9BEC16F095
:101F200001C007F002C008F061EC15F0090E0724AB
:101F30000F6E000E0820106EB0EC18F0500E0F243B
:101F4000F66E100E1020F76E0900F5CF18F009009C
:101F5000F5CF19F00A00F5CF1AF0000E0A6E640EE4
:101F6000096E2DC007F0086A61EC15F0120E072407
:101F70000F6E000E0820106E000E126E030E116E12
:101F8000B0EC18F0500E0F24F66E100E1020F76E05
:101F90000900F5CF15F00900F5CF16F00A00F5CFCE
:101FA00017F021EC13F015C02AF016C02BF017C063
:101FB0002CF0000E126E030E116E000E046E0A0E4F
:101FC000036E2DC001F0026A9BEC16F001C00FF009
:101FD00002C010F0B0EC18F0500E0F24F66E100E88
:101FE0001020F76E0900F5CF18F00900F5CF19F0B1
:101FF0000A00F5CF1AF02AC015F02BC016F02CC03D
:1020000017F021EC13F015C027F016C028F017C008
:1020100029F027C015F028C016F029C017F0000ECF
:10202000186E000E196E3F0E1A6E21EC13F015C0DB
:1020300024F016C025F017C026F012000A0E2D64F9
:1020400063D0000E126E030E116E000E046E0A0EA7
:10205000036E2DC001F0026A9BEC16F001C00FF078
:1020600002C010F0B0EC18F0500E0F24F66E100EF7
:102070001020F76E0900F5CF18F00900F5CF19F020
:102080000A00F5CF1AF0000E0A6E0A0E096E2DC076
:1020900007F0086A61EC15F0090E07240F6E000EB8
:1020A0000820106E000E126E030E116EB0EC18F0C8
:1020B000500E0F24F66E100E1020F76E0900F5CFAB
:1020C00015F00900F5CF16F00A00F5CF17F021EC56
:1020D00013F015C02AF016C02BF017C02CF02AC040
:1020E00015F02BC016F02CC017F0000E186E000E65
:1020F000196E3F0E1A6E21EC13F015C024F016C0B5
:1021000025F017C026F012002D50030D500EF324B9
:10211000F66E100EF420F76E0900F5CF15F00900E9
:10212000F5CF16F00A00F5CF17F0000E186E000E6E
:10213000196E3F0E1A6E21EC13F015C024F016C074
:1021400025F017C026F0120030C034F0356A366A28
:102150002F34343601E335803450396E33C034F0D7
:10216000356A366A3234343601E335803450386E9D
:102170003950D8B40BD03850395CD8B00ED0395063
:1021800000083824346E180E346407D031C02EF0A5
:1021900032C02FF033C030F012003850D8B40BD01A
:1021A0003950385CD8B00ED0385000083924346E1D
:1021B000180E346407D02EC02EF02FC02FF030C080
:1021C00030F01200060E376E30BE378E33BE378CBD
:1021D0002F8EFF0E2E16FF0E2F16000E3016328E8B
:1021E000FF0E3116FF0E3216000E33163850395CD2
:1021F000D8B01BD0D8903136323633363806395005
:102200003818D8B40DD0370637C034F0070E34165E
:10221000D8B406D0EFD7D89030322F322E32392AA8
:1022200038503918D8B41FD0F6D73950385CD8B0E8
:102230001AD0D8902E362F36303639063950381805
:10224000D8B40DD0370637C034F0070E3416D8B4E2
:1022500006D0EFD7D890333232323132382A385064
:102260003918D8A4F7D737AE0CD0FF0E2E1AFF0EB0
:102270002F1AFF0E301A010E2E26000E2F22000EEE
:10228000302237AC0CD0FF0E311AFF0E321AFF0E7F
:10229000331A010E3126000E3222000E3322000EB8
:1022A000376E2E5031262F5032223050332233AE2B
:1022B0000ED0FF0E311AFF0E321AFF0E331A010E26
:1022C0003126000E3222000E3322010E376E31C04D
:1022D00001F032C002F033C003F039C004F037C05F
:1022E00005F0C2EC14F001C02EF002C02FF003C0C4
:1022F00030F0120003C007F0086A096A023407369A
:1023000001E3088007500F6E0F50D8A409D0000ECB
:10231000016E000E026E000E036E000E046E1200BF
:1023200006C007F0086A096A0534073601E3088029
:1023300007500E6E0E50D8A409D0000E016E000E8C
:10234000026E000E036E000E046E1200028EFF0E6F
:102350000116FF0E0216000E0316058EFF0E041660
:10236000FF0E0516000E0616000E0A6E000E0B6E0E
:10237000000E0C6E000E0D6E7F0E0F5E0E50980F4D
:102380000F5E180E0E6ED8900A360B360C360D36D0
:102390000450015C0550025806500358D8A007D0DD
:1023A0000450015E0550025A0650035A0A80D89024
:1023B0000136023603360E2EE6D70FAE16D00F507A
:1023C000800A970FD8B009D0000E016E000E026E81
:1023D000000E036E000E046E1200D8900D320C3207
:1023E0000B320A320F3EF9D715D0170E0F640FD0FB
:1023F000000E016E000E026E000E036E000E046EE3
:102400001200D8900A360B360C360D360F060F50D8
:10241000D8A4F7D70AC001F00BC002F00CC003F03B
:102420000DC004F01200033404340C6E0C50D8A418
:1024300009D0000E016E000E026E000E036E000E3B
:10244000046E1200063407340B6E0B50D8A409D06A
:10245000000E016E000E026E000E036E000E046E82
:102460001200038EFF0E0116FF0E0216FF0E03165A
:10247000000E0416068EFF0E0416FF0E0516FF0E44
:102480000616000E0716000E076E000E086E000EF0
:10249000096E000E0A6E7F0E0C5E0B50A00F0C5ED4
:1024A000200E0B6ED8900736083609360A360450CF
:1024B000015C055002580650035807500458D8A034
:1024C00009D00450015E0550025A0650035A0750C5
:1024D000045A0780D89001360236033604360B2E94
:1024E000E1D70CAE16D00C50800A9F0FD8B009D09F
:1024F000000E016E000E026E000E036E000E046EE2
:102500001200D8900A320932083207320C3EF9D74D
:1025100015D01F0E0C640FD0000E016E000E026E5F
:10252000000E036E000E046E1200D89007360836B7
:1025300009360A360C060C50D8A4F7D707C001F0AC
:1025400008C002F009C003F00AC004F012002DC058
:102550002FF0306A316A2C342F3601E330802F504F
:10256000396E3950D8A409D0000E2B6E000E2C6E97
:10257000000E2D6E000E2E6E1200170E2F6E2BC049
:1025800030F02CC031F02DC032F02F28336E04D043
:10259000D890323231323032332EFAD73050346E56
:1025A0002C8EFF0E2B16FF0E2C16000E2D162B5008
:1025B000356E2C50366E2D50376E386A8E0E395E61
:1025C00039AE16D03950800A8F0FD8B009D0000E1E
:1025D0002B6E000E2C6E000E2D6E000E2E6E120055
:1025E000D8903832373236323532393EF9D715D0B5
:1025F000170E39640FD0000E2B6E000E2C6E000EDD
:102600002D6E000E2E6E1200D890353636363736C7
:10261000383639063950D8A4F7D73450D8B408D052
:10262000381E371E361E356C000E362237223822F1
:1026300035C02BF036C02CF037C02DF038C02EF04E
:10264000120017C01BF01C6A1D6A16341B3601E30A
:102650001C801B501E6E1E50D8A407D0000E156E95
:10266000000E166E000E176E12001AC01BF01C6AC8
:102670001D6A19341B3601E31C801B50236E235046
:10268000D8A407D0000E156E000E166E000E176E41
:10269000120023507B0F1E2617C023F01A50231A56
:1026A000800E2316168E198EFF0E1816FF0E1916A1
:1026B000000E1A16000E1F6E000E206E000E216E08
:1026C000070E226E15A006D018501F261950202282
:1026D0001A502122D890173216321532D890183657
:1026E00019361A36222EEED7090E226E15A006D004
:1026F00018501F26195020221A502122D890173224
:1027000016321532D890213220321F32222EEED7C7
:102710001FC001F020C002F021C003F01EC004F071
:1027200023C005F0C2EC14F001C015F002C016F091
:1027300003C017F012000FC013F0146A156A0E34AC
:10274000133601E3148013501A6E1A50D8A407D020
:10275000000E0D6E000E0E6E000E0F6E120012C0F7
:1027600013F0146A156A1134133601E31480135000
:102770001B6E1B50D8A407D0000E0D6E000E0E6EFF
:10278000000E0F6E1200000E176E000E186E000E77
:10279000196E1B50890F1A5E0FC01BF012501B1AC6
:1027A000800E1B160E8EFF0E0D16FF0E0E16000E5F
:1027B0000F16118EFF0E1016FF0E1116000E1216B8
:1027C000180E166ED89017361836193610500D5C44
:1027D00011500E5812500F58D8A007D010500D5E4F
:1027E00011500E5A12500F5A1780D8900D360E36CF
:1027F0000F36162EE7D717C001F018C002F019C027
:1028000003F01AC004F01BC005F0C2EC14F001C0C4
:102810000DF002C00EF003C00FF01200070EC26EE2
:10282000D00E3A6ECA0EE82EFED73A2EFCD7C282E0
:10283000090E3B6E1E0E3A6EE40EE82EFED73A2EBF
:10284000FCD73B2EFAD700D0C4CF51F0526A000E0D
:10285000186EA00E196E3C0E1A6E51C009F052C0CF
:102860000AF080EC18F009C015F00AC016F00BC091
:1028700017F021EC13F015C02BF016C02CF017C088
:102880002DF0A7EC12F02BC04FF02CC050F0000E32
:10289000106E800E116E3E0E126E4FC009F050C0C9
:1028A0000AF080EC18F009C00DF00AC00EF00BC061
:1028B0000FF09BEC13F00DC02BF00EC02CF00FC0EE
:1028C0002DF0A7EC12F02BC0BCF02CC0BDF0120014
:1028D0000F0EC26ED00E3A6ECA0EE82EFED73A2EFA
:1028E000FCD7C282090E3B6E1E0E3A6EE40EE82E35
:1028F000FED73A2EFCD73B2EFAD700D0C4CF51F0EA
:10290000526A000E186EA00E196E3C0E1A6E51C05F
:1029100009F052C00AF080EC18F009C015F00AC0A6
:1029200016F00BC017F021EC13F015C02BF016C0F9
:102930002CF017C02DF0A7EC12F02BC04FF02CC0DC
:1029400050F0CD0E106E4C0E116E3E0E126E4FC03A
:1029500009F050C00AF080EC18F009C00DF00AC070
:102960000EF00BC00FF09BEC13F00DC02BF00EC05F
:102970002CF00FC02DF0A7EC12F02BC0BAF02CC039
:10298000BBF012000450D8B405D00150021003105F
:10299000D8A40CD0000E016E000E026E000E036E65
:1029A0001200042AD890033202320132000E0114C0
:1029B000066E000E0214076EFE0E0314086E06501B
:1029C00007100810D8B40CD0ECD7042A010E012649
:1029D000000E0222000E0322D8900332023201328E
:1029E000000E0114066E000E0214076EFF0E031493
:1029F000086E065007100810D8B406D0E6D70406B3
:102A0000D89001360236033602BE03D0020E0460AF
:102A1000F6D704A0029ED890043204500312055049
:102A2000D8A4038E01C001F002C002F003C003F07D
:102A3000120003AE16D001C007F002C008F003C0B8
:102A400009F0071E081E091E072A000E0822092287
:102A5000000E0724016E000E0820026E800E092071
:102A6000036E06AE16D004C007F005C008F006C01D
:102A700009F0071E081E091E072A000E0822092257
:102A8000000E0724046E000E0820056E800E09203B
:102A9000066E000E011A000E021A800E031A000EB6
:102AA000041A000E051A800E061A0450015C055027
:102AB000025806500358D8B002D0D8901200D880DF
:102AC0001200000E0C6E0AAE06D0096C0A1ED8B0B9
:102AD0000A2A010E0C6E08AE06D0076C081ED8B08C
:102AE000082A010E0C1A000E0E6E000E0D6E095013
:102AF0000A10D8B41CD0010E0B6E04D0D890093641
:102B00000A360B2A0AAEFAD7D8900D360E3609507F
:102B1000075C0A500858D8A005D00950075E0A5033
:102B2000085A0D80D8900A3209320B2EEDD70C507E
:102B3000D8B404D00D6C0E1ED8B00E2A0DC007F00C
:102B40000EC008F01200000E096E000E0A6E000E94
:102B50000B6E000E0C6E0550061007100810D8B44E
:102B60002AD0010E0D6E06D0D890053606360736EF
:102B700008360D2A08AEF8D7D89009360A360B3633
:102B80000C360550015C0650025807500358085097
:102B90000458D8A009D00550015E0650025A0750CB
:102BA000035A0850045A0980D89008320732063276
:102BB00005320D2EE1D709C001F00AC002F00BC0AA
:102BC00003F00CC004F012000B0EC26ED00E3A6E71
:102BD000CA0EE82EFED73A2EFCD7C282090E3B6EF3
:102BE0001E0E3A6EE40EE82EFED73A2EFCD73B2E90
:102BF000FAD700D0C4CF55F0566A950E186E940ED1
:102C0000196E3C0E1A6E55C009F056C00AF080ECE1
:102C100018F009C015F00AC016F00BC017F021EC2F
:102C200013F015C02BF016C02CF017C02DF0A7EC38
:102C300012F02BC053F02CC054F053C0BEF054C05F
:102C4000BFF01200000ED5EC18F0020E0C6EA00EB4
:102C50000B6E920EE82EFED70B2EFCD70C2EFAD759
:102C600000D0030E15EC18F0680E0B6EE40EE82E83
:102C7000FED70B2EFCD700D0030E15EC18F0E50E96
:102C80000B6E910EE82EFED70B2EFCD700F0030E34
:102C900015EC18F0020E15EC18F0020E15EC18F0F9
:102CA000080E15EC18F0000E15EC18F00C0E15ECD3
:102CB00018F0000E15EC18F0060E15EC18F01200C6
:102CC000000E0D6E000E0C6E1BD00C5008240A6E08
:102CD0000D5009200B6E0AC0F6FF0BC0F7FF000E67
:102CE000F86E0F0EF76403D00800F55005D0F6CF4C
:102CF000E9FFF7CFEAFFEF5097EC17F00C4A0D2AE7
:102D00000C5008240A6E0D5009200B6E0AC0F6FF05
:102D10000BC0F7FF000EF86E0F0EF76403D008002B
:102D2000F55005D0F6CFE9FFF7CFEAFFEF500009E5
:102D3000D8B41200CAD7000E066E02AE06D0016CDF
:102D4000021ED8B0022A010E066E04AE04D0036C37
:102D5000041ED8B0042A03500410D8B418D0010EB1
:102D6000056E04D0D89003360436052A04AEFAD78F
:102D70000350015C04500258D8A004D00350015EF7
:102D80000450025AD89004320332052EF1D706506F
:102D9000D8B404D0016C021ED8B0022A01C001F0E0
:102DA00002C002F0120094869488A00E0E6E860E69
:102DB0000F6E010E106E000E116E6AEC17F0090E08
:102DC000176E1E0E166EE40EE82EFED7162EFCD7DA
:102DD000172EFAD700D022EC16F00BEC19F012ECFB
:102DE00019F0010E0B6E010EEDEC17F0770E086E68
:102DF000100E096E60EC16F0090E176E1E0E166EA0
:102E0000E40EE82EFED7162EFCD7172EFAD700D0E8
:102E100012000550061007100810D8B424D0010E77
:102E2000096E06D0D8900536063607360836092AC8
:102E300008AEF8D70550015C0650025807500358F9
:102E400008500458D8A008D00550015E0650025A18
:102E50000750035A0850045AD890083207320632F5
:102E60000532092EE7D701C001F002C002F003C00D
:102E700003F004C004F012008E0E116E06D0D8903C
:102E80000C320B320A320932112A000E09140D6E6F
:102E9000000E0A140E6E000E0B140F6EFF0E0C14B3
:102EA000106E0D500E100F101010D8A4E8D709C0E6
:102EB00001F00AC002F00BC003F011C004F0000ED4
:102EC000056EC2EC14F001C009F002C00AF003C0A4
:102ED0000BF01200280EC66E000EC56E000E016EBD
:102EE000900E026ED00E036E030E046E0EC012F032
:102EF0000FC013F010C014F011C015F0020ED890DE
:102F00001236133614361536E82EF9D712C005F0EE
:102F100013C006F014C007F015C008F0A3EC15F0BC
:102F20000104C86E000EC76E948694881200056E68
:102F300005500F0B076E0738F00B076E0550F00BAE
:102F4000066E010ED5EC18F00650D5EC18F00650C0
:102F50000509D5EC18F0D50EE82EFED700F0065086
:102F60000109D5EC18F00750D5EC18F00750050909
:102F7000D5EC18F0D50EE82EFED700F00750010969
:102F8000D5EC18F012009268000E936E000E946E4D
:102F9000000E956E9668000E806E000E816E000E1B
:102FA000826E000E836E000E846E000E896E000E1F
:102FB0008A6E000E8B6E000E8C6E000E8D6E0F01F1
:102FC0003869000E396F000E3A6F000E3B6F000E2D
:102FD0003C6F740ED36E9B8C12000C6E0C04D8A444
:102FE00010D00B507F0F0F6E0F380F0B0D6E0F5060
:102FF0000F0B0E6E0D5015EC18F00E5015EC18F06E
:103000001200020E0C18D8A412000B50BF0F0F6E46
:103010000F380F0B0D6E0F500F0B0E6E0D5015EC81
:1030200018F00E5015EC18F012000A6E0A38F00B6A
:103030000A6E010E076E000E076E0750D5EC18F0F1
:103040000A50D5EC18F0040E0AC005F0066A051007
:10305000086E0650096E0850D5EC18F0540E056E37
:103060001C0EE82EFED7052EFCD700D00AC008F0B3
:10307000096A0850D5EC18F012004C0EF66E320EAC
:10308000F76E000EF86E0900F5CF5DF00900F5CF80
:103090005EF001EE00F0400EEE6AE806FDE100EEA3
:1030A000A6F0420EEE6AE806FDE100EE4FF00E0ECD
:1030B000EE6AE806FDE1000EF86E0001D1EF0DF0BA
:1030C0003D503E103F10D8B406D0000E3D1A000E01
:1030D0003E1A800E3F1A3AC02EF03BC02FF03CC083
:1030E00030F03DC031F03EC032F03FC033F0A4ECD0
:1030F00010F02EC03AF02FC03BF030C03CF0120070
:10310000000E0C6E0AAE06D0096C0A1ED8B00A2A50
:10311000010E0C6E09C001F00AC002F0036A8E0EA7
:10312000046E0CC005F0C2EC14F001C009F002C03E
:103130000AF003C00BF01200000E0F01496F0C0ED5
:10314000666E0C0EBD6E7D0EBA6EA00EBB6E800E4E
:10315000676E400EBE6E0C0E5D6F800E5E6F1200CD
:103160000F501102F3CF13F0F4CF14F00F501202EE
:10317000F350142610501102F350142613C00FF010
:1031800014C010F01200015002100310D8B406D081
:10319000000E011A000E021A800E031A01C001F07F
:1031A00002C002F003C003F01200046E22EC19F01A
:1031B000000E036E700E026E19EC19F004C002F0DE
:1031C000036A19EC19F01EEC19F01200036E000EE0
:1031D000026E3A0E036005D02F0E036402D0010E7A
:1031E000026E02C001F00130120092800F0138819E
:1031F00092823883030EC26E800EC16E3E0EC06E88
:10320000C09E1200C7B4FED7C5CF01F01F0E011635
:10321000D8B41200F7D7000E15EC18F0010E15EC1B
:1032200018F01200000E15EC18F00C0E15EC18F04A
:10323000120002EC19F002C0C9FF120002EC19F0F2
:0E324000C584120002EC19F0C58012000100D6
:020000040020DA
:08000000FFFFFFFFFFFFFFFF00
:020000040030CA
:0E000000FF18193CFFBF80FF0FC00FE00F403C
:00000001FF
