:0400000093EF17F073
:1010000000010000000A00000064000000E8030086
:101010000010270000A086010040420F0080969833
:101020000000E1F50500CA9A3B00803F0020410026
:10103000C842007A44401C4650C34724744997185C
:101040004BBCBE4C6B6E4E03155079AD60F34971CD
:1010500000803FCDCC3DD7233C12833AB7D138C670
:101060002737388635C0D633CC2B32708930E7DB52
:101070002EE53C1E42A20D5465737400252E326687
:101080000055693D00493D00553D00204100205676
:101090000000440E0001C36F000EC46F6BD3250E19
:1010A000D619D8B407D040C0D9FF41C0DAFFD6C0A6
:1010B000DFFF5ED3000EC66F000EC56F42C0F6FFA5
:1010C00043C0F7FF0800F5502E0AD8A42FD0C68DD4
:1010D000424A432A000ED26F000ED16F1CD0D1C0FD
:1010E0000FF0D2C010F0000E126E0A0E116EEAEC74
:1010F00017F042C0F6FF43C0F7FF0800F5500F2677
:10110000000E1022D00E0F240001D16FFF0E102010
:10111000D26F424A432A42C0F6FF43C0F7FF08009D
:10112000F55032EC18F0D8A00AD0D9D7000E000143
:10113000D26F000ED16FC68902D0C68512D042C0D0
:10114000F6FF43C0F7FF424A432A0800F5CFD6F026
:101150000001D651000AD8B419D3660AD8B4EDD725
:1011600009D3070EC615D8B4C9D2C6A904D0000E3B
:10117000D26F060ED16FC3C0D9FFC4C0DAFFDECF75
:10118000D3F0DECFD4F0DDCFD5F0030EC327000EB1
:10119000C423D5AF11D0D3C001F0D4C002F0D5C064
:1011A00003F0FDEC17F001C0D3F002C0D4F003C08F
:1011B000D5F0030E0001C513000ECC6F000ECB6FEF
:1011C000D351D411D511D8B486D0820E476EFF0EFC
:1011D000486ED3C049F0D4C04AF0D5C04BF0D6C059
:1011E0004CF0100E05D0D8904C324B324A32493276
:1011F000E82EF9D749504724CB6F000E4820CC6F1A
:10120000CB07D8A0CC07CBC00FF0CCC010F0000E9D
:10121000126E030E116EEAEC17F00FC0CBF010C087
:10122000CCF0CBC007F0CCC008F0000E0A6E0A0E5E
:10123000096EBBEC14F007C0CBF008C0CCF0000185
:10124000CCAF03D0CB07D8A0CC07CB510008CDEC56
:101250000BF024C0CDF025C0CEF026C0CFF0CDC01D
:1012600015F0CEC016F0CFC017F0D3C018F0D4C020
:1012700019F0D5C01AF09FEC12F015C0CDF016C0D1
:10128000CEF017C0CFF0CDC001F0CEC002F0CFC07D
:1012900003F0000E046E800E056E3F0E066EE3EC4A
:1012A00013F0D8B005D00001CB07D8A0CC0713D0DD
:1012B000CDC001F0CEC002F0CFC003F0000E046E2E
:1012C000200E056E410E066EE3EC13F0D8A003D09D
:1012D0000001CB4BCC2B0001D2BF06D0D2511BE179
:1012E0000D0ED15DD8B017D0D3C02EF0D4C02FF0E2
:1012F000D5C030F0D151D1EC0DF024C031F025C073
:1013000032F026C033F022EC10F02EC0D3F02FC004
:10131000D4F030C0D5F00001CCBF06D0CC5120E1D4
:101320000A0ECB5DD8B01CD0D351D411D511D8B48E
:1013300056D0D3C02BF0D4C02CF0D5C02DF025EC66
:1013400012F02B502C102D102E10D8A448D00001D4
:10135000CCBF45D0CC5104E1020ECB5DD8A03FD02C
:10136000CDC001F0CEC002F0CFC003F0700E046E0D
:10137000890E056E400E066EE3EC13F0D8B003D074
:101380000001F70E02D00001F80ECB27FF0ECC2390
:10139000CB51CDEC0BF024C0CDF025C0CEF026C053
:1013A000CFF0D3C001F0D4C002F0D5C003F0CDC05F
:1013B00004F0CEC005F0CFC006F0F8EC10F001C08C
:1013C000C7F002C0C8F003C0C9F004C0CAF0000EE4
:1013D0000001D36F000ED46F000ED56F33D0D3C091
:1013E0002BF0D4C02CF0D5C02DF025EC12F02BC082
:1013F000C7F02CC0C8F02DC0C9F02EC0CAF0D3C0B1
:101400003AF0D4C03BF0D5C03CF0C7C009F0C8C02A
:101410000AF0C9C00BF0CAC00CF092EC16F009C07B
:101420003DF00AC03EF00BC03FF0B6EC17F03AC0FA
:10143000D3F03BC0D4F03CC0D5F0000E0001CC6F1F
:10144000000ECB6F010ED66F0A0ED619D8B418D085
:10145000D651040D010EF324F66E100EF420F76E33
:101460000900F550C75D0900F550C8590900F5504D
:10147000C9590900F550CA59D8A002D0D62BE4D7D3
:10148000030EC515476E000EC615486E475048102E
:10149000D8B450D040C0D9FF41C0DAFF2D0E47D09C
:1014A000C7C001F0C8C002F0C9C003F0CAC004F050
:1014B000D651040D010EF324F66E100EF420F76ED3
:1014C0000900F5CF05F00900F5CF06F00900F5CFCA
:1014D00007F00A00F5CF08F0FDEC14F001C0CDF0E4
:1014E00002C0CEF003C0CFF004C0D0F0CDC001F0F8
:1014F000CEC002F0CFC003F0D0C004F00A0E056EDB
:10150000000E066E000E076E000E086E5FEC16F001
:1015100001C0CDF002C0CEF003C0CFF004C0D0F0C7
:101520000001CD51300F40C0D9FF41C0DAFFDF6E5E
:10153000404A412AD607D629D8B40CD0B1D740C0EA
:10154000D9FF41C0DAFF300EDF6E404A412ACB0797
:10155000D8A0CC07CCBF05D0CC51F1E1CB05D8B099
:10156000EED7D2BF09D0D25104E1090ED15DD8A087
:1015700003D0080ED66F02D0D1C0D6F0D651D15FBD
:10158000000ED6BFFF0ED25BD651D8B408D040C0F3
:10159000D9FF41C0DAFF2E0EDF6E404A412AD651F4
:1015A000CDEC0BF024C0C0F025C0C1F026C0C2F0C5
:1015B000D3C018F0D4C019F0D5C01AF0C0C015F0CF
:1015C000C1C016F0C2C017F09FEC12F015C02BF08E
:1015D00016C02CF017C02DF025EC12F02BC0C7F070
:1015E0002CC0C8F02DC0C9F02EC0CAF071D0C7C041
:1015F00001F0C8C002F0C9C003F0CAC004F0000185
:10160000D651040D010EF324F66E100EF420F76E81
:101610000900F5CF05F00900F5CF06F00900F5CF78
:1016200007F00A00F5CF08F0FDEC14F001C0CDF092
:1016300002C0CEF003C0CFF004C0D0F0CDC001F0A6
:10164000CEC002F0CFC003F0D0C004F00A0E056E89
:10165000000E066E000E076E000E086E5FEC16F0B0
:1016600001C0CDF002C0CEF003C0CFF004C0D0F076
:101670000001CD51300F40C0D9FF41C0DAFFDF6E0D
:10168000404A412AC7C001F0C8C002F0C9C003F0F7
:10169000CAC004F0D651040D010EF324F66E100EEC
:1016A000F420F76E0900F5CF05F00900F5CF06F03C
:1016B0000900F5CF07F00A00F5CF08F05FEC16F04F
:1016C00001C0C7F002C0C8F003C0C9F004C0CAF02E
:1016D0000001D607D629D8B40CD089D740C0D9FF8D
:1016E00041C0DAFF300EDF6E404A412AD107D8A050
:1016F000D207D151D211D8B43DD0F0D7D151D211A7
:10170000D8A408D0C751C811C911CA11D8A402D091
:10171000D14BD22B800ED6BF7F0E476ED151D65DF6
:10172000D251800A4758D8B003D0D1C0D6F010D0DB
:10173000D251800A476ED651D15D800ED6BF7F0E42
:101740004758D8B005D0D651D16FD26BD1BFD20790
:10175000030EC515476E000EC615486E475048105B
:10176000D8B408D040C0D9FF41C0DAFF2D0EDF6EDB
:10177000404A412A42C0F6FF43C0F7FF424A432A8B
:101780000800F5CFD6F0D651D8A489D440C0D9FFEF
:1017900041C0DAFF000EDF6E12002A6E2AAE01D1C0
:1017A0002A6C2A50800A120FD8A091D0000E126E17
:1017B000030E116E000E0A6E0A0E096E000E046E04
:1017C000640E036E2A50016E026A01BE0206F1EC3D
:1017D00015F001C007F002C008F0BBEC14F0090ED0
:1017E00007240F6E000E0820106EEAEC17F0500E62
:1017F0000F24F66E100E1020F76E0900F5CF18F0CA
:101800000900F5CF19F00A00F5CF1AF0000E0A6EA4
:10181000640E096E2A50076E086A07BE0806BBEC04
:1018200014F0120E07240F6E000E0820106E000E2A
:10183000126E030E116EEAEC17F0500E0F24F66EC6
:10184000100E1020F76E0900F5CF15F00900F5CF46
:1018500016F00A00F5CF17F09FEC12F015C027F034
:1018600016C028F017C029F027C015F028C016F0C0
:1018700029C017F0000E126E030E116E000E046EDA
:101880000A0E036E2A50016E026A01BE0206F1ECD6
:1018900015F001C00FF002C010F0EAEC17F0500E86
:1018A0000F24F66E100E1020F76E0900F5CF18F019
:1018B0000900F5CF19F00A00F5CF1AF09FEC12F0ED
:1018C00015C024F016C025F017C026F012002A50CB
:1018D000800A750FD8A053D0000E0A6E0A0E096E4A
:1018E0002A50076E086A07BE0806BBEC14F0090E02
:1018F00007240F6E000E0820106E000E126E030EED
:10190000116EEAEC17F0500E0F24F66E100E102038
:10191000F76E0900F5CF15F00900F5CF16F00A00B3
:10192000F5CF17F0000E126E030E116E000E046E4E
:101930000A0E036E2A50016E026A01BE0206F1EC25
:1019400015F001C00FF002C010F0EAEC17F0500ED5
:101950000F24F66E100E1020F76E0900F5CF18F068
:101960000900F5CF19F00A00F5CF1AF09FEC12F03C
:1019700015C024F016C025F017C026F012002A501A
:10198000030D500EF324F66E100EF420F76E0900CE
:10199000F5CF24F00900F5CF25F00A00F5CF26F0A9
:1019A00012002A50800A120FD8A091D0000E126E99
:1019B000030E116E000E0A6E0A0E096E000E046E02
:1019C000640E036E2A50016E026A01BE0206F1EC3B
:1019D00015F001C007F002C008F0BBEC14F0090ECE
:1019E00007240F6E000E0820106EEAEC17F0290E87
:1019F0000F24F66E100E1020F76E0900F5CF18F0C8
:101A00000900F5CF19F00A00F5CF1AF0000E0A6EA2
:101A1000640E096E2A50076E086A07BE0806BBEC02
:101A200014F0120E07240F6E000E0820106E000E28
:101A3000126E030E116EEAEC17F0290E0F24F66EEB
:101A4000100E1020F76E0900F5CF15F00900F5CF44
:101A500016F00A00F5CF17F09FEC12F015C027F032
:101A600016C028F017C029F027C015F028C016F0BE
:101A700029C017F0000E126E030E116E000E046ED8
:101A80000A0E036E2A50016E026A01BE0206F1ECD4
:101A900015F001C00FF002C010F0EAEC17F0290EAB
:101AA0000F24F66E100E1020F76E0900F5CF18F017
:101AB0000900F5CF19F00A00F5CF1AF09FEC12F0EB
:101AC00015C024F016C025F017C026F012002A50C9
:101AD000800A750FD8A053D0000E0A6E0A0E096E48
:101AE0002A50076E086A07BE0806BBEC14F0090E00
:101AF00007240F6E000E0820106E000E126E030EEB
:101B0000116EEAEC17F0290E0F24F66E100E10205D
:101B1000F76E0900F5CF15F00900F5CF16F00A00B1
:101B2000F5CF17F0000E126E030E116E000E046E4C
:101B30000A0E036E2A50016E026A01BE0206F1EC23
:101B400015F001C00FF002C010F0EAEC17F0290EFA
:101B50000F24F66E100E1020F76E0900F5CF18F066
:101B60000900F5CF19F00A00F5CF1AF09FEC12F03A
:101B700015C024F016C025F017C026F012002A5018
:101B8000030D290EF324F66E100EF420F76E0900F3
:101B9000F5CF24F00900F5CF25F00A00F5CF26F0A7
:101BA00012002D6E6D0E2D649FD0000E126E030E6E
:101BB000116E000E0A6E0A0E096E000E046E640E9F
:101BC000036E2DC001F0026AF1EC15F001C007F0C0
:101BD00002C008F0BBEC14F0090E07240F6E000ED3
:101BE0000820106EEAEC17F0500E0F24F66E100E5F
:101BF0001020F76E0900F5CF18F00900F5CF19F0A5
:101C00000A00F5CF1AF0000E0A6E640E096E2DC0A0
:101C100007F0086ABBEC14F0120E07240F6E000EDA
:101C20000820106E000E126E030E116EEAEC17F013
:101C3000500E0F24F66E100E1020F76E0900F5CF2F
:101C400015F00900F5CF16F00A00F5CF17F09FEC5C
:101C500012F015C02AF016C02BF017C02CF0000EA1
:101C6000126E030E116E000E046E0A0E036E2DC06E
:101C700001F0026AF1EC15F001C00FF002C010F0A3
:101C8000EAEC17F0500E0F24F66E100E1020F76ECF
:101C90000900F5CF18F00900F5CF19F00A00F5CFCB
:101CA0001AF02AC015F02BC016F02CC017F09FECCC
:101CB00012F015C027F016C028F017C029F027C071
:101CC00015F028C016F029C017F0000E186E000E8F
:101CD000196E3F0E1A6E9FEC12F015C024F016C05C
:101CE00025F017C026F012000A0E2D6463D0000EF6
:101CF000126E030E116E000E046E0A0E036E2DC0DE
:101D000001F0026AF1EC15F001C00FF002C010F012
:101D1000EAEC17F0500E0F24F66E100E1020F76E3E
:101D20000900F5CF18F00900F5CF19F00A00F5CF3A
:101D30001AF0000E0A6E0A0E096E2DC007F0086A2E
:101D4000BBEC14F0090E07240F6E000E0820106E75
:101D5000000E126E030E116EEAEC17F0500E0F24F7
:101D6000F66E100E1020F76E0900F5CF15F0090081
:101D7000F5CF16F00A00F5CF17F09FEC12F015C062
:101D80002AF016C02BF017C02CF02AC015F02BC07B
:101D900016F02CC017F0000E186E000E196E3F0ED4
:101DA0001A6E9FEC12F015C024F016C025F017C073
:101DB00026F012002D50030D500EF324F66E100E77
:101DC000F420F76E0900F5CF15F00900F5CF16F0F5
:101DD0000A00F5CF17F0000E186E000E196E3F0EB8
:101DE0001A6E9FEC12F015C024F016C025F017C033
:101DF00026F0120019EC17F0D6EC17F041EC18F0B1
:101E000029EC16F0000E0001F96F640EF86F000E59
:101E1000DB6F000EDA6F000EFE6F000EFD6F9598FF
:101E20008C9C8C9E8C9A8C98130EC26E57EC18F07A
:101E30002BEC14F0010E0B6E010E43EC17F0880E24
:101E4000086E100E096E7CEC15F0E40E406E000E6C
:101E5000416E7C0E426E100E436EFAC044F0FBC021
:101E600045F0FCC046F049EC08F0030E0B6E010E85
:101E700043EC17F0E40E086E000E096E7CEC15F0D2
:101E8000000E0001FE6F010EFD6F090E4E6E1E0E5C
:101E90004D6EE40EE82EFED74D2EFCD74E2EFAD70F
:101EA00000D0000EC46E090E4E6E1E0E4D6EE40E76
:101EB000E82EFED74D2EFCD74E2EFAD700D0B7EC29
:101EC00015F0010E0B6E020E43EC17F0850E086E36
:101ED000100E096E7CEC15F0DC0E406E000E416EAB
:101EE0007C0E426E100E436EECC044F0EDC045F027
:101EF000EEC046F049EC08F0030E0B6E020E43EC08
:101F000017F0DC0E086E000E096E7CEC15F08B0EDF
:101F1000086E100E096E7CEC15F0000E0001FE6FCD
:101F2000020EFD6F090E4E6E1E0E4D6EE40EE82E73
:101F3000FED74D2EFCD74E2EFAD700D0000EC46E21
:101F4000090E4E6E1E0E4D6EE40EE82EFED74D2E7F
:101F5000FCD74E2EFAD700D073EC14F0090E0B6E9E
:101F6000010E43EC17F0810E086E100E096E7CEC2A
:101F700015F0E40E406E000E416E7C0E426E100EA7
:101F8000436EFAC044F0FBC045F0FCC046F049EC9B
:101F900008F00C0E0B6E010E43EC17F0E40E086E09
:101FA000000E096E7CEC15F08E0E086E100E096E98
:101FB0007CEC15F0000E0001FE6F000EFD6F090EA7
:101FC0004E6E1E0E4D6EE40EE82EFED74D2EFCD743
:101FD0004E2EFAD700D0000EC46E090E4E6E1E0EA5
:101FE0004D6EE40EE82EFED74D2EFCD74E2EFAD7BE
:101FF00000D0F5C001F0F6C002F0F7C003F0000E0B
:10200000046E400E056E410E066EE3EC13F0D8B080
:102010000FD7000EBE6EF2C015F0F3C016F0F4C07C
:1020200017F0EFC018F0F0C019F0F1C01AF09FECF3
:1020300012F015C0D7F016C0D8F017C0D9F0F8C00C
:1020400067FFF6D630C034F0356A366A2F3434363E
:1020500001E335803450396E33C034F0356A366A66
:102060003234343601E335803450386E3950D8B4C8
:102070000BD03850395CD8B00ED039500008382415
:10208000346E180E346407D031C02EF032C02FF0F9
:1020900033C030F012003850D8B40BD03950385C0F
:1020A000D8B00ED0385000083924346E180E34647D
:1020B00007D02EC02EF02FC02FF030C030F012000D
:1020C000060E376E30BE378E33BE378C2F8EFF0E26
:1020D0002E16FF0E2F16000E3016328EFF0E311602
:1020E000FF0E3216000E33163850395CD8B01BD0B4
:1020F000D890313632363336380639503818D8B49D
:102100000DD0370637C034F0070E3416D8B406D0D9
:10211000EFD7D89030322F322E32392A3850391832
:10212000D8B41FD0F6D73950385CD8B01AD0D89070
:102130002E362F363036390639503818D8B40DD0EF
:10214000370637C034F0070E3416D8B406D0EFD7B0
:10215000D890333232323132382A38503918D8A434
:10216000F7D737AE0CD0FF0E2E1AFF0E2F1AFF0E28
:10217000301A010E2E26000E2F22000E302237AC10
:102180000CD0FF0E311AFF0E321AFF0E331A010E59
:102190003126000E3222000E3322000E376E2E50F2
:1021A00031262F5032223050332233AE0ED0FF0E64
:1021B000311AFF0E321AFF0E331A010E3126000EAD
:1021C0003222000E3322010E376E31C001F032C0D0
:1021D00002F033C003F039C004F037C005F08CECD6
:1021E00013F001C02EF002C02FF003C030F0120037
:1021F00003C007F0086A096A0234073601E3088061
:1022000007500F6E0F50D8A409D0000E016E000EBB
:10221000026E000E036E000E046E120006C007F080
:10222000086A096A0534073601E3088007500E6E14
:102230000E50D8A409D0000E016E000E026E000EE2
:10224000036E000E046E1200028EFF0E0116FF0ECA
:102250000216000E0316058EFF0E0416FF0E05165D
:10226000000E0616000E0A6E000E0B6E000E0C6EAF
:10227000000E0D6E7F0E0F5E0E50980F0F5E180E43
:102280000E6ED8900A360B360C360D360450015CB3
:102290000550025806500358D8A007D00450015EDC
:1022A0000550025A0650035A0A80D8900136023669
:1022B00003360E2EE6D70FAE16D00F50800A970FBA
:1022C000D8B009D0000E016E000E026E000E036E33
:1022D000000E046E1200D8900D320C320B320A320E
:1022E0000F3EF9D715D0170E0F640FD0000E016EF8
:1022F000000E026E000E036E000E046E1200D890E7
:102300000A360B360C360D360F060F50D8A4F7D709
:102310000AC001F00BC002F00CC003F00DC004F0C5
:102320001200033404340C6E0C50D8A409D0000EF3
:10233000016E000E026E000E036E000E046E12009F
:10234000063407340B6E0B50D8A409D0000E016E72
:10235000000E026E000E036E000E046E1200038E5D
:10236000FF0E0116FF0E0216FF0E0316000E0416D6
:10237000068EFF0E0416FF0E0516FF0E0616000E43
:102380000716000E076E000E086E000E096E000E96
:102390000A6E7F0E0C5E0B50A00F0C5E200E0B6EB3
:1023A000D8900736083609360A360450015C0550C5
:1023B00002580650035807500458D8A009D00450BA
:1023C000015E0550025A0650035A0750045A07800E
:1023D000D89001360236033604360B2EE1D70CAE08
:1023E00016D00C50800A9F0FD8B009D0000E016E95
:1023F000000E026E000E036E000E046E1200D890E6
:102400000A320932083207320C3EF9D715D01F0EB6
:102410000C640FD0000E016E000E026E000E036EF3
:10242000000E046E1200D8900736083609360A36B8
:102430000C060C50D8A4F7D707C001F008C002F072
:1024400009C003F00AC004F012002DC02FF0306A5A
:10245000316A2C342F3601E330802F50396E3950D9
:10246000D8A409D0000E2B6E000E2C6E000E2D6E1F
:10247000000E2E6E1200170E2F6E2BC030F02CC0E7
:1024800031F02DC032F02F28336E04D0D890323284
:1024900031323032332EFAD73050346E2C8EFF0E5C
:1024A0002B16FF0E2C16000E2D162B50356E2C50B1
:1024B000366E2D50376E386A8E0E395E39AE16D0B4
:1024C0003950800A8F0FD8B009D0000E2B6E000E45
:1024D0002C6E000E2D6E000E2E6E1200D89038322B
:1024E000373236323532393EF9D715D0170E3964C6
:1024F0000FD0000E2B6E000E2C6E000E2D6E000EF7
:102500002E6E1200D89035363636373638363906C4
:102510003950D8A4F7D73450D8B408D0381E371E55
:10252000361E356C000E36223722382235C02BF08D
:1025300036C02CF037C02DF038C02EF0120017C076
:102540001BF01C6A1D6A16341B3601E31C801B50ED
:102550001E6E1E50D8A407D0000E156E000E166E0B
:10256000000E176E12001AC01BF01C6A1D6A193487
:102570001B3601E31C801B50236E2350D8A407D0C8
:10258000000E156E000E166E000E176E1200235010
:102590007B0F1E2617C023F01A50231A800E231615
:1025A000168E198EFF0E1816FF0E1916000E1A162B
:1025B000000E1F6E000E206E000E216E070E226EA2
:1025C00015A006D018501F26195020221A5021227B
:1025D000D890173216321532D890183619361A3666
:1025E000222EEED7090E226E15A006D018501F26F7
:1025F000195020221A502122D89017321632153243
:10260000D890213220321F32222EEED71FC001F087
:1026100020C002F021C003F01EC004F023C005F06A
:102620008CEC13F001C015F002C016F003C017F0D7
:1026300012000BC00FF0106A116A0A340F3601E362
:1026400010800F50166E1650D8A407D0000E096ED9
:10265000000E0A6E000E0B6E12000EC00FF0106A14
:10266000116A0D340F3601E310800F50176E1750AA
:10267000D8A407D0000E096E000E0A6E000E0B6E75
:102680001200000E136E000E146E000E156E175021
:10269000890F165E0BC017F00E50171A800E171612
:1026A0000A8EFF0E0916FF0E0A16000E0B160D8E6F
:1026B000FF0E0C16FF0E0D16000E0E16180E126EE3
:1026C000D8901336143615360C50095C0D500A5844
:1026D0000E500B58D8A007D00C50095E0D500A5A66
:1026E0000E500B5A1380D89009360A360B36122E2C
:1026F000E7D713C001F014C002F015C003F016C0F4
:1027000004F017C005F08CEC13F001C009F002C012
:102710000AF003C00BF012000450D8B405D00150E9
:1027200002100310D8A40CD0000E016E000E026E31
:10273000000E036E1200042AD890033202320132D6
:10274000000E0114066E000E0214076EFE0E031436
:10275000086E065007100810D8B40CD0ECD7042A25
:10276000010E0126000E0222000E0322D890033231
:1027700002320132000E0114066E000E0214076EC2
:10278000FF0E0314086E065007100810D8B406D0C8
:10279000E6D70406D89001360236033602BE03D0CF
:1027A000020E0460F6D704A0029ED89004320450B2
:1027B00003120550D8A4038E01C001F002C002F03C
:1027C00003C003F0120003AE16D001C007F002C030
:1027D00008F003C009F0071E081E091E072A000E94
:1027E00008220922000E0724016E000E0820026E46
:1027F000800E0920036E06AE16D004C007F005C097
:1028000008F006C009F0071E081E091E072A000E60
:1028100008220922000E0724046E000E0820056E0F
:10282000800E0920066E000E011A000E021A800E9C
:10283000031A000E041A000E051A800E061A045020
:10284000015C0550025806500358D8B002D0D89009
:102850001200D8801200070EC26ED00E246ECA0E6F
:10286000E82EFED7242EFCD7C282090E256E1E0E3E
:10287000246EE40EE82EFED7242EFCD7252EFAD7A0
:1028800000D0C4500FEC18F009C052F00AC053F049
:102890000BC054F052C015F053C016F054C017F0DE
:1028A000000E186EA00E196E3C0E1A6E9FEC12F000
:1028B00015C04FF016C050F017C051F04FC009F0CE
:1028C00050C00AF051C00BF0000E0C6E800E0D6E61
:1028D0003E0E0E6E19EC13F009C08FF00AC090F096
:1028E0000BC091F012000F0EC26ED00E246ECA0EF5
:1028F000E82EFED7242EFCD7C282090E256E1E0EAE
:10290000246EE40EE82EFED7242EFCD7252EFAD70F
:1029100000D0C4500FEC18F009C052F00AC053F0B8
:102920000BC054F052C015F053C016F054C017F04D
:10293000000E186EA00E196E3C0E1A6E9FEC12F06F
:1029400015C04FF016C050F017C051F04FC009F03D
:1029500050C00AF051C00BF0CD0E0C6E4C0E0D6E37
:102960003E0E0E6E19EC13F009C08CF00AC08DF00B
:102970000BC08EF01200000E0C6E0AAE06D0096C71
:102980000A1ED8B00A2A010E0C6E08AE06D0076CDB
:10299000081ED8B0082A010E0C1A000E0E6E000E8A
:1029A0000D6E09500A10D8B41CD0010E0B6E04D065
:1029B000D89009360A360B2A0AAEFAD7D8900D36C7
:1029C0000E360950075C0A500858D8A005D00950A7
:1029D000075E0A50085A0D80D8900A3209320B2E31
:1029E000EDD70C50D8B404D00D6C0E1ED8B00E2A02
:1029F0000DC007F00EC008F01200000E096E000EA8
:102A00000A6E000E0B6E000E0C6E055006100710BD
:102A10000810D8B42AD0010E0D6E06D0D890053615
:102A20000636073608360D2A08AEF8D7D89009368C
:102A30000A360B360C360550015C0650025807501A
:102A4000035808500458D8A009D00550015E06501C
:102A5000025A0750035A0850045A0980D890083285
:102A60000732063205320D2EE1D709C001F00AC047
:102A700002F00BC003F00CC004F01200000E21ECB9
:102A800018F0020E0C6EA00E0B6E920EE82EFED702
:102A90000B2EFCD70C2EFAD700D0030E6BEC17F0E0
:102AA000680E0B6EE40EE82EFED70B2EFCD700D07E
:102AB000030E6BEC17F0E50E0B6E910EE82EFED7B1
:102AC0000B2EFCD700F0030E6BEC17F0020E6BEC34
:102AD00017F0020E6BEC17F0080E6BEC17F0000EFF
:102AE0006BEC17F00C0E6BEC17F0000E6BEC17F0A4
:102AF000060E6BEC17F01200000E0D6E000E0C6E41
:102B00001BD00C5008240A6E0D5009200B6E0AC011
:102B1000F6FF0BC0F7FF000EF86E0F0EF76403D040
:102B20000800F55005D0F6CFE9FFF7CFEAFFEF50E8
:102B3000EDEC16F00C4A0D2A0C5008240A6E0D50CC
:102B400009200B6E0AC0F6FF0BC0F7FF000EF86EEF
:102B50000F0EF76403D00800F55005D0F6CFE9FF5B
:102B6000F7CFEAFFEF500009D8B41200CAD70B0E16
:102B7000C26ED00E246ECA0EE82EFED7242EFCD7CD
:102B8000C282090E256E1E0E246EE40EE82EFED7BC
:102B9000242EFCD7252EFAD700D0C4500FEC18F005
:102BA00009C055F00AC056F00BC057F055C015F0DB
:102BB00056C016F057C017F0950E186E940E196E89
:102BC0003C0E1A6E9FEC12F015C095F016C096F0F0
:102BD00017C097F095C092F096C093F097C094F00C
:102BE0001200000E066E02AE06D0016C021ED8B0B6
:102BF000022A010E066E04AE04D0036C041ED8B087
:102C0000042A03500410D8B418D0010E056E04D065
:102C1000D89003360436052A04AEFAD70350015C77
:102C200004500258D8A004D00350015E0450025A48
:102C3000D89004320332052EF1D70650D8B404D010
:102C4000016C021ED8B0022A01C001F002C002F0DD
:102C5000120094869488A00E0E6E860E0F6E010EE2
:102C6000106E000E116EC0EC16F0090E176E1E0EDF
:102C7000166EE40EE82EFED7162EFCD7172EFAD7C6
:102C800000D03EEC15F057EC18F05EEC18F0010E99
:102C90000B6E010E43EC17F0770E086E100E096EE6
:102CA0007CEC15F0090E176E1E0E166EE40EE82E63
:102CB000FED7162EFCD7172EFAD700D012000550DB
:102CC000061007100810D8B424D0010E096E06D0E3
:102CD000D8900536063607360836092A08AEF8D7E2
:102CE0000550015C0650025807500358085004581C
:102CF000D8A008D00550015E0650025A0750035A6A
:102D00000850045AD8900832073206320532092E8C
:102D1000E7D701C001F002C002F003C003F004C015
:102D200004F012008E0E116E06D0D8900C320B32C9
:102D30000A320932112A000E09140D6E000E0A140F
:102D40000E6E000E0B140F6EFF0E0C14106E0D5055
:102D50000E100F101010D8A4E8D709C001F00AC057
:102D600002F00BC003F011C004F0000E056E8CECF5
:102D700013F001C009F002C00AF003C00BF012000A
:102D8000280EC66E000EC56E000E016E900E026E0D
:102D9000D00E036E030E046E0EC012F00FC013F0BF
:102DA00010C014F011C015F0020ED8901236133670
:102DB00014361536E82EF9D712C005F013C006F008
:102DC00014C007F015C008F0FDEC14F00104C86E43
:102DD000000EC76E948694881200056E05500F0B86
:102DE000076E0738F00B076E0550F00B066E010EEC
:102DF00021EC18F0065021EC18F00650050921ECE2
:102E000018F0D50EE82EFED700F00650010921EC8F
:102E100018F0075021EC18F00750050921EC18F0C4
:102E2000D50EE82EFED700F00750010921EC18F06E
:102E300012009268000E936E000E946E000E956E56
:102E40009668000E806E000E816E000E826E000E7F
:102E5000836E000E846E000E896E000E8A6E000E68
:102E60008B6E000E8C6E000E8D6E0F013869000E99
:102E7000396F000E3A6F000E3B6F000E3C6F740E00
:102E8000D36E9B8C12000C6E0C04D8A410D00B5087
:102E90007F0F0F6E0F380F0B0D6E0F500F0B0E6E56
:102EA0000D506BEC17F00E506BEC17F01200020E89
:102EB0000C18D8A412000B50BF0F0F6E0F380F0B59
:102EC0000D6E0F500F0B0E6E0D506BEC17F00E5079
:102ED0006BEC17F012000A6E0A38F00B0A6E010E46
:102EE000076E000E076E075021EC18F00A5021EC17
:102EF00018F0040E0AC005F0066A0510086E0650A8
:102F0000096E085021EC18F0540E056E1C0EE82EC8
:102F1000FED7052EFCD700D00AC008F0096A085079
:102F200021EC18F01200E40EF66E300EF76E000E73
:102F3000F86E0900F5CF5EF00900F5CF5FF001EE05
:102F400000F0400EEE6AE806FDE100EE60F0600E73
:102F5000EE6AE806FDE100EE4FF00F0EEE6AE806BD
:102F6000FDE1000EF86E0001FAEF0EF03D503E104C
:102F70003F10D8B406D0000E3D1A000E3E1A800E47
:102F80003F1A3AC02EF03BC02FF03CC030F03DC09D
:102F900031F03EC032F03FC033F022EC10F02EC0D2
:102FA0003AF02FC03BF030C03CF01200000E0F0191
:102FB000496F0C0E666E0C0EBD6E7D0EBA6EA00EC5
:102FC000BB6E800E676E400EBE6E0C0E5D6F800E87
:102FD0005E6F12000F501102F3CF13F0F4CF14F014
:102FE0000F501202F350142610501102F350142601
:102FF00013C00FF014C010F01200015002100310A3
:10300000D8B406D0000E011A000E021A800E031A60
:1030100001C001F002C002F003C003F012000C6E08
:103020000C50016E026A036A8E0E046E000E056E6D
:103030008CEC13F001C009F002C00AF003C00BF0E1
:103040001200046E6EEC18F0000E036E700E026E2D
:1030500065EC18F004C002F0036A65EC18F06AEC45
:1030600018F01200036E000E026E3A0E036005D0D7
:103070002F0E036402D0010E026E02C001F0013077
:10308000120092800F01388192823883030EC26E43
:10309000800EC16E3E0EC06EC09E1200C7B4FED739
:1030A000C5CF01F01F0E0116D8B41200F7D7000EDD
:1030B0006BEC17F0010E6BEC17F01200000E6BECCE
:1030C00017F00C0E6BEC17F012004EEC18F002C06B
:1030D000C9FF12004EEC18F0C58412004EEC18F037
:0630E000C5801200010092
:020000040020DA
:08000000FFFFFFFFFFFFFFFF00
:020000040030CA
:0E000000FF18193CFFBF80FF0FC00FE00F403C
:00000001FF
