:0400000040EF7DF060
:10F9EC000100948C4B0E026E000E016E89EC7DF0C2
:10F9FC00948EF28EF28C9D8A120092800F013881C7
:10FA0C0092823883030EC26E800EC16E3E0EC06EA3
:10FA1C00C09E1200000E0F01496F0C0E666E0C0E8C
:10FA2C00BD6E7D0EBA6EA00EBB6E800E676E400E64
:10FA3C00BE6E0C0E5D6F800E5E6F1200000E0C6EB3
:10FA4C000AAE06D0096C0A1ED8B00A2A010E0C6E3A
:10FA5C0009C001F00AC002F0036A8E0E046E0CC0DD
:10FA6C0005F0C4EC7DF001C009F002C00AF003C03F
:10FA7C000BF01200EC0EF66EF90EF76E000EF86E2F
:10FA8C000900F5CF5EF00900F5CF5FF000EE60F0F5
:10FA9C00660EEE6AE806FDE100EE38F0240EEE6A22
:10FAAC00E806FDE1000EF86E000178EF7FF0000E25
:10FABC00926E000E936E000E946E000E956E96680C
:10FACC00000E806E000E816E000E826E000E836E34
:10FADC00000E846E000E896E000E8A6E000E8B6E08
:10FAEC00000E8C6E000E8D6E000E0F01386F000E26
:10FAFC00396F000E3A6F000E3B6F000E3C6F740EA8
:10FB0C00D36E9B8C12005C685D6809D0CF0E05D05B
:10FB1C00330E03D02A0E01D0240EAF6E25D001C0B7
:10FB2C0003F002C004F00450250AD8B40AD06E0ABF
:10FB3C00D8B40CD03B0AD8B40ED0F30AD8B410D039
:10FB4C0013D00350800AD8B4E1D70ED00350000A6A
:10FB5C00D8B4DED709D00350800AD8B4DBD704D090
:10FB6C000350400AD8B4D8D7AC9CAC8AAC98AC94AF
:10FB7C00AB8EAB9CAB88AB96F28E12000450D8B413
:10FB8C0005D0015002100310D8A40CD0000E016E49
:10FB9C00000E026E000E036E1200042AD89003327F
:10FBAC0002320132000E0114066E000E0214076EB2
:10FBBC00FE0E0314086E065007100810D8B40CD0B3
:10FBCC00ECD7042A010E0126000E0222000E03229D
:10FBDC00D890033202320132000E0114066E000E70
:10FBEC000214076EFF0E0314086E0650071008105F
:10FBFC00D8B406D0E6D70406D890013602360336C0
:10FC0C0002BE03D0020E0460F6D704A0029ED89068
:10FC1C000432045003120550D8A4038E01C001F025
:10FC2C0002C002F003C003F012002B042C10D8A465
:10FC3C0030D0000EBE6E2EBE0AD02E5004E1650EE2
:10FC4C002D5CD8A004D0000E2E6E640E2D6E9A0E74
:10FC5C00106ED90E116E3F0E126E2DC009F02EC013
:10FC6C000AF024EC7DF009C00DF00AC00EF00BC0B8
:10FC7C000FF084EC7EF00DC01CF00EC01DF00FC018
:10FC8C001EF0FEEC7EF01CC058F01DC059F058C0A0
:10FC9C0067FF020E2B182C10D8A4120067682EBE1A
:10FCAC000AD02E5004E1650E2D5CD8A004D0000EB5
:10FCBC002E6E640E2D6E9A0E106ED90E116E3F0EB6
:10FCCC00126E2DC009F02EC00AF024EC7DF009C094
:10FCDC000DF00AC00EF00BC00FF084EC7EF00DC0DE
:10FCEC001CF00EC01DF00FC01EF0FEEC7EF01CC010
:10FCFC0058F01DC059F058C0BEFF12000FC013F0D1
:10FD0C00146A156A0E34133601E314801350166E00
:10FD1C001650D8A407D0000E0D6E000E0E6E000EFD
:10FD2C000F6E120012C013F0146A156A11341336D8
:10FD3C0001E3148013501B6E1B50D8A407D0000E87
:10FD4C000D6E000E0E6E000E0F6E12001B507B0F10
:10FD5C0016260FC01BF012501B1A800E1B160E8E8F
:10FD6C00118EFF0E1016FF0E1116000E1216000E3D
:10FD7C00176E000E186E000E196E070E1A6E0DA07F
:10FD8C0006D0105017261150182212501922D89054
:10FD9C000F320E320D32D8901036113612361A2E12
:10FDAC00EED7090E1A6E0DA006D010501726115062
:10FDBC00182212501922D8900F320E320D32D890D0
:10FDCC001932183217321A2EEED717C001F018C09C
:10FDDC0002F019C003F016C004F01BC005F0C4EC0F
:10FDEC007DF001C00DF002C00EF003C00FF0120048
:10FDFC001EC020F0216A226A1D34203601E32180C6
:10FE0C0020502A6E2A50D8A409D0000E1C6E000E69
:10FE1C001D6E000E1E6E000E1F6E1200170E206E51
:10FE2C001CC021F01DC022F01EC023F02028246E1F
:10FE3C0004D0D890233222322132242EFAD72150EA
:10FE4C00256E1D8EFF0E1C16FF0E1D16000E1E16A7
:10FE5C001C50266E1D50276E1E50286E296A8E0E61
:10FE6C002A5E2AAE16D02A50800A8F0FD8B009D03D
:10FE7C00000E1C6E000E1D6E000E1E6E000E1F6E10
:10FE8C001200D89029322832273226322A3EF9D74E
:10FE9C0015D0170E2A640FD0000E1C6E000E1D6EAE
:10FEAC00000E1E6E000E1F6E1200D89026362736DE
:10FEBC00283629362A062A50D8A4F7D72550D8B484
:10FECC0008D0291E281E271E266C000E2722282249
:10FEDC00292226C01CF027C01DF028C01EF029C006
:10FEEC001FF01200000E4D6E000E4C6E000E3F6E99
:10FEFC00000E3E6E000E4B6E000E4A6E000E476EEC
:10FF0C00000E466E000E456E000E446E000E416EE5
:10FF1C00000E406E5DEC7DF010EC7DF003EC7DF09E
:10FF2C00F7EC7CF0000E356E000E346E8C9C8C9EC3
:10FF3C008C9A8C98030EC26E030EC26ED00E2F6E6E
:10FF4C00CA0EE82EFED72F2EFCD7C282090E306EB9
:10FF5C001E0E2F6EE40EE82EFED72F2EFCD7302E61
:10FF6C00FAD700D0C4CF36F0376A36C009F037C0A4
:10FF7C000AF024EC7DF009C00DF00AC00EF00BC0A5
:10FF8C000FF0180E106E950E116E3C0E126E84EC66
:10FF9C007EF00DC031F00EC032F00FC033F0AE0E5B
:10FFAC00106EC70E116E3E0E126E36C009F037C0C1
:10FFBC000AF024EC7DF009C00DF00AC00EF00BC065
:10FFCC000FF084EC7EF00DC01CF00EC01DF00FC0C5
:10FFDC001EF0FEEC7EF01CC034F01DC035F0000E9F
:10FFEC002C6E020E2B6E34C02DF035C02EF01BEC97
:04FFFC007EF0A2D71A
:020000040020DA
:08000000FFFFFFFFFFFFFFFF00
:020000040030CA
:0E000000FF18193CFFBF81FF0FC00FE00F403B
:00000001FF
